:020000040800F2
:100000000028002049240008612100086721000819
:100010006D2100087321000879210008000000000C
:100020000000000000000000000000007F21000828
:100030008B2100080000000097210008A321000880
:1000400091240008912400089124000891240008BC
:1000500091240008912400089124000891240008AC
:10006000912400089124000891240008912400089C
:10007000912400089124000891240008912400088C
:10008000912400089124000891240008912400087C
:10009000912400089124000891240008912400086C
:1000A000912400089124000891240008912400085C
:1000B000B1210008912400080000000091240008EC
:1000C00091240008000000000000000091240008B6
:1000D00000000000912400089124000800000000A6
:1000E00091240008912400089124000800000000D9
:1000F0000000000000000000000000000000000000
:0C01000000000000000000005FF808F1A3
:10010C0010B5054C237833B9044B13B10448AFF345
:10011C0000800123237010BD7C0000200000000033
:10012C00C03A000808B5034B1BB103490348AFF3B1
:10013C00008008BD0000000080000020C03A0008CC
:10014C0080B500AF984B1B68013B062B00F21D815C
:10015C0001A252F823F000BF81010008AF01000892
:10016C003D020008C9020008550300086B03000893
:10017C00810300088C4B02221A608C4B1B688C4A42
:10018C0013608A4B1B684FF47A7202FB03F3194617
:10019C00012001F023FF4FF47A71042001F01EFFBF
:1001AC0000E102F00FF8824B1B68824A82FB0312BB
:1001BC009210DB17D31A804A13607D4B19687D4B64
:1001CC0083FB01239A10CB17D21A13469B001344BE
:1001DC005B00CA1A784B5A60784B1B69012B10D103
:1001EC00734B1B68013B724A1360714B1B68002BED
:1001FC0002DA6F4B00221A604FF47A71042001F07E
:10020C00EDFE6E4B5B68012B40F0C180664B032208
:10021C001A606B4B1B686B4A1360694B1B684FF47D
:10022C007A7202FB03F31946012001F0D7FEAEE00F
:10023C0001F0F4FF634B1B685E4A82FB03129210C1
:10024C00DB17D31A5C4A13605E4B1968594B83FB5E
:10025C0001239A10CB17D21A13469B0013445B0050
:10026C00CA1A554B5A60554B1B69012B10D1554B73
:10027C001B68013B534A1360524B1B68002B02DA7C
:10028C00504B00221A604FF47A71042001F0A6FE44
:10029C004A4B5B68012B7CD1434B04221A604A4BBE
:1002AC001B684A4A1360484B1B684FF47A7202FB76
:1002BC0003F31946012001F091FE6AE001F098FF6A
:1002CC00424B1B683B4A82FB03129210DB17D31A7A
:1002DC00394A13603D4B1968364B83FB01239A1046
:1002EC00CB17D21A13469B0013445B00CA1A324B2D
:1002FC005A60324B1B69012B10D1344B1B68013BEC
:10030C00324A1360314B1B68002B02DA2F4B002250
:10031C001A604FF47A71042001F060FE274B5B6881
:10032C00012B38D1204B02221A60204B1B684FF452
:10033C007A7202FB03F31946012001F04FFE1B4BAE
:10034C001B681B4A136026E01C4B1B6A012B24D133
:10035C0001F0C2FFFA21082001F040FE1DE0174B0E
:10036C001B6A012B1BD101F0CDFFFA21082001F0F3
:10037C0035FE14E0114B1B6A012B12D101F0D8FF92
:10038C00FA21082001F02AFE0BE000BF0AE000BFB2
:10039C0008E000BF06E000BF04E000BF02E000BFC1
:1003AC0000E000BF00BF80BD4000002048000020DE
:1003BC005400002067666666B00000205C010020D7
:1003CC00500000205C0000204C0000205800002051
:1003DC0080B500AF994B1B68013B062B00F21E81C8
:1003EC0001A252F823F000BF110400083F040008DA
:1003FC00CD04000859050008E7050008FD050008B4
:10040C00130600088D4B03221A608D4B1B688D4A16
:10041C0013608B4B1B684FF47A7202FB03F3194683
:10042C00022001F0DBFD4FF47A71072001F0D6FDBC
:10043C0001E101F009FF844B1B68844A82FB031223
:10044C009210DB17D31A824A13607F4B19687F4BCB
:10045C0083FB01239A10CB17D21A13469B0013442B
:10046C005B00CA1A7A4B5A607A4BDB69012B10D1AC
:10047C00754B1B68013B744A1360734B1B68002B54
:10048C0002DA714B00221A604FF47A71072001F0E6
:10049C00A5FD704B9B68012B40F0C280674B03227B
:1004AC001A60674B1B684FF47A7202FB03F3194610
:1004BC00022001F093FD624B1B68624A1360AFE0AF
:1004CC0001F0F2FE5F4B1B68604A82FB0312921034
:1004DC00DB17D31A5E4A13605A4B19685B4B83FBCC
:1004EC0001239A10CB17D21A13469B0013445B00BE
:1004FC00CA1A574B5A60574BDB69012B10D1514B21
:10050C001B68013B4F4A13604E4B1B68002B02DAF1
:10051C004C4B00221A604FF47A71072001F05EFDFB
:10052C004C4B9B68012B7DD1444B04221A604A4BE7
:10053C001B684FF47A7202FB03F31946022001F098
:10054C004DFD454B1B68454A13606BE001F094FE72
:10055C00424B1B683D4A82FB03129210DB17D31AE5
:10056C003B4A13603D4B1968384B83FB01239A10AF
:10057C00CB17D21A13469B0013445B00CA1A344B98
:10058C005A60344BDB69012B11D1344B1B68013B96
:10059C00324A1360314B1B68002B03D12E4B1B6866
:1005AC002E4A13604FF47A71072001F017FD294B86
:1005BC009B68012B38D1214B02221A60284B1B68F7
:1005CC004FF47A7202FB03F31946022001F006FD88
:1005DC00234B1B681C4A136026E01E4B5B6A012BE5
:1005EC0024D101F0BBFEFA21092001F0F7FC1DE03B
:1005FC00184B5B6A012B1BD101F0C8FEFA210920B4
:10060C0001F0ECFC14E0134B5B6A012B12D101F0EE
:10061C00D5FEFA21092001F0E1FC0BE000BF0AE055
:10062C0000BF08E000BF06E000BF04E000BF02E02E
:10063C0000BF00E000BF00BF80BD00BF4400002031
:10064C00500000206800002060000020676666668D
:10065C00B80000205C0100204C0000206400002049
:10066C004800002080B500AFFFF76AFDFFF7B0FE31
:10067C0000BF80BD80B500AF614B1B68013B162BE2
:10068C0000F2B38001A252F823F000BFF506000877
:10069C00F7070008F7070008F7070008F707000836
:1006AC00F7070008F7070008F7070008F707000826
:1006BC00F7070008F7070008F7070008F707000816
:1006CC00F7070008F7070008F7070008F707000806
:1006DC00F7070008F70700080307000837070008AA
:1006EC0077070008B7070008454B14221A600A2147
:1006FC00052001F073FC434B5B69012B77D1424B16
:10070C001B68184600F084FF3F4B1B6801333E4AC0
:10071C0013603D4B1B68022B02D13B4B00221A602D
:10072C00FA21052001F05AFC61E0384B00221A60D6
:10073C00364B02225A60334B5B69012B59D1324B39
:10074C001B68184600F064FF2F4B1B6801332E4AC0
:10075C0013602D4B1B68022B02D12B4B00221A600D
:10076C00FA21052001F03AFC43E0284B00221A60E4
:10077C00264B03225A60234B5B69012B3BD1224B46
:10078C001B68184600F044FF1F4B1B6801331E4AC0
:10079C0013601D4B1B68022B02D11B4B00221A60ED
:1007AC00FA21052001F01AFC25E0184B00221A60F2
:1007BC00164B04225A60134B5B69012B1DD1124B53
:1007CC001B68184600F024FF0F4B1B6801330E4AC0
:1007DC0013600D4B1B68022B02D10B4B00221A60CD
:1007EC00FA21052001F0FAFB07E000BF06E000BF8C
:1007FC0004E000BF02E000BF00E000BF00BF80BD0E
:10080C00000000205C010020C0000020B00000208F
:10081C0080B500AF7D4B1B68013B162B00F2F480BA
:10082C0001A252F823F000BF91080008150A000835
:10083C00150A0008150A0008150A0008150A000810
:10084C00150A0008150A0008150A0008150A000800
:10085C00150A0008150A0008150A0008150A0008F0
:10086C00150A0008150A0008150A0008150A0008E0
:10087C00150A00089F080008D50800083B09000865
:10088C00A1090008614B14221A600A21062001F00C
:10089C00A5FB5F4B9B69012B40F0AF805D4B1B6848
:1008AC00184600F0EDFE5B4B1B680133594A136090
:1008BC00584B1B68022B02D1564B00221A60FA21AE
:1008CC00062001F08BFB98E0534B1B68534A82FBCC
:1008DC0003129210DB17D31A514A13604E4B19684E
:1008EC004E4B83FB01239A10CB17D21A13469B0055
:1008FC0013445B00CA1A4A4B5A60454B9B69012B47
:10090C007DD1444B1B68184600F0BAFE414B1B6866
:10091C000133404A13603F4B1B68022B02D13D4B05
:10092C0000221A60FA21062001F058FB67E03D4BCB
:10093C001B683A4A82FB03129210DB17D31A384A0F
:10094C001360384B1968354B83FB01239A10CB1776
:10095C00D21A13469B0013445B00CA1A304B5A60E0
:10096C002B4B9B69012B4CD12A4B1B68184600F072
:10097C0087FE284B1B680133264A1360254B1B68E6
:10098C00022B02D1234B00221A60FA21062001F01F
:10099C0025FB36E0244B1B68204A82FB0312921085
:1009AC00DB17D31A1E4A13601F4B19681B4B83FBB2
:1009BC0001239A10CB17D21A13469B0013445B00E9
:1009CC00CA1A174B5A60124B9B69012B1BD1114B46
:1009DC001B68184600F054FE0E4B1B6801330D4A81
:1009EC0013600C4B1B68022B02D10A4B00221A60BD
:1009FC00FA21062001F0F2FA05E000BF04E000BF86
:100A0C0002E000BF00E000BF00BF80BD040000207A
:100A1C005C010020C4000020F001002067666666BF
:100A2C00B8000020F4010020EC01002080B500AFDC
:100A3C009E4B1B68013B0D2B00F22C8101A252F83E
:100A4C0023F000BF890A0008A10C0008A10C0008C3
:100A5C00A10C0008A10C0008A10C0008A10C0008B6
:100A6C00A10C0008A10C0008A10C0008910A0008B8
:100A7C00D90A0008550B0008CF0B00088B4B0B2232
:100A8C001A6010E100F028F90346012B40F00481B4
:100A9C00864B0C221A60864B15221A60854B152248
:100AAC001A60854B05221A60844B05221A6001F0EE
:100ABC009DFCFA21082001F091FAFA21092001F09D
:100ACC008DFA7F4B1B687F4A1360E5E000F004F958
:100ADC000346012B1CD1754B0D221A60744B162248
:100AEC001A60744B16221A60734B06221A60734BF1
:100AFC0006221A6001F07AFCFA21082001F06EFA45
:100B0C00FA21092001F06AFA6F4B1B686F4A1360D7
:100B1C0000F0F4F80346012B0BD16A4B1B68013330
:100B2C00684A1360674B1B68632B02DD654B01221F
:100B3C001A6000F0F5F80346012B40F0AF80614BD2
:100B4C001B685F4A1360A9E000F0C6F80346012B4E
:100B5C001CD1564B0E221A60554B17221A60554B5E
:100B6C0017221A60544B07221A60544B07221A6042
:100B7C0001F03CFCFA21082001F030FAFA2109209E
:100B8C0001F02CFA524B1B68524A136000F0B6F875
:100B9C000346012B0BD14D4B1B6801334B4A1360A1
:100BAC004A4B1B68632B02DD484B01221A6000F094
:100BBC00B7F80346012B73D1444B1B68424A1360B0
:100BCC006EE000F089F80346012B48D1384B142213
:100BDC001A60384B14221A60344B0B221A60364BB5
:100BEC0001221A60354B01221A60314B14221A6013
:100BFC00304B14221A60364B1A68334B1B681A445C
:100C0C002F4B1B689A4207DD314B1A682E4B1B6821
:100C1C0013442B4A13600FE02D4B1A682A4B1B68A8
:100C2C001A44274B1B689A4206DA254B1A68264B46
:100C3C001B68D31A264A1360214B1B68632B05DCF7
:100C4C00214B1A68224B1B689A4208DD1C4B05226B
:100C5C001A601D4B02221A601D4B03221A6000F011
:100C6C004DF80346012B0BD11A4B1B680133194A63
:100C7C001360184B1B68632B02DD164B01221A60A4
:100C8C0000F04EF80346012B0CD1124B1B68104A96
:100C9C00136007E000BF06E000BF04E000BF02E005
:100CAC0000BF00E000BF00BF80BD00BF3C000020C3
:100CBC000000002004000020400000204400002020
:100CCC0048000020F00100204C000020F40100201E
:100CDC0050000020EC01002080B400AF064B1B68D4
:100CEC00012B04D1044B00221A60012300E00023E5
:100CFC001846BD4680BC70479800002080B400AFF9
:100D0C00064B1B68012B04D1044B00221A600123F3
:100D1C0000E000231846BD4680BC70479C000020B4
:100D2C0080B400AF064B1B68012B04D1044B00228E
:100D3C001A60012300E000231846BD4680BC7047B2
:100D4C00A000002080B500AF254B1B68254A13601E
:100D5C00254B1B68224A13600221244801F07EFEB9
:100D6C0003461A46204B1A601E4B1A681C4B1B6814
:100D7C009A4232D11A4B1A681B4B1B689A422CD1DF
:100D8C001B4B1A68184B1B689A4212D0164B1B68E7
:100D9C00174A1360144B1B68002B06D1154B01220C
:100DAC001A60154BC8221A6017E0124B00221A6009
:100DBC0013E00D4B1B68002B0FD10F4B1B68002B46
:100DCC000BDD0D4B1B68013B0B4A13600A4B1B6878
:100DDC00002B02D1094B01221A6000BF80BD00BF5D
:100DEC001400002008000020200000200008014012
:100DFC002C0000209800002038000020A4000020C7
:100E0C0080B500AF224B5B68224A5360224B5B6873
:100E1C001F4A53600421214801F020FE03461A4664
:100E2C001D4B5A601B4B5A68194B5B689A422DD16B
:100E3C00174B5A68184B5B689A4227D1184B5A6863
:100E4C00154B5B689A4212D0134B5B68144A536083
:100E5C00114B5B68002B06D1124B01221A60124B0E
:100E6C00C8221A6012E00F4B00221A600EE00E4BE3
:100E7C001B68013B0C4A13600B4B1B68002B05DCF9
:100E8C000A4B01221A60064B01225A6000BF80BD3A
:100E9C001400002008000020200000200008014061
:100EAC002C0000209C00002038000020A80000200E
:100EBC0080B500AF224B9B68224A9360224B9B6803
:100ECC001F4A93600821214801F0C8FD03461A46C9
:100EDC001D4B9A601B4B9A68194B9B689A422DD1FB
:100EEC00174B9A68184B9B689A4227D1184B9A68F3
:100EFC00154B9B689A4212D0134B9B68144A936013
:100F0C00114B9B68002B06D1124B01221A60124B1D
:100F1C00C8221A6012E00F4B00221A600EE00E4B32
:100F2C001B68013B0C4A13600B4B1B68002B05DC48
:100F3C000A4B01221A60064B01229A6000BF80BD49
:100F4C0014000020080000202000002000080140B0
:100F5C002C000020A000002038000020AC00002055
:100F6C0080B582B000AF78607B68092B00F280817D
:100F7C0001A252F823F000BFAD0F0008F50F0008D6
:100F8C003D10000885100008CD1000081511000850
:100F9C005D110008A5110008ED11000835120008BC
:100FAC0000220121B44801F070FD00220221B24858
:100FBC0001F06BFD00220421AF4801F066FD002218
:100FCC000821AD4801F061FD00221021AA4801F072
:100FDC005CFD00222021A84801F057FD0122402190
:100FEC00A54801F052FD43E101220121A24801F084
:100FFC004CFD00220221A04801F047FD00220421F3
:10100C009D4801F042FD012208219B4801F03DFD65
:10101C0001221021984801F038FD01222021964828
:10102C0001F033FD01224021934801F02EFD1FE118
:10103C0000220121904801F028FD002202218E4857
:10104C0001F023FD012204218B4801F01EFD00223A
:10105C000821894801F019FD00221021864801F071
:10106C0014FD01222021844801F00FFD00224021B3
:10107C00814801F00AFDFBE0002201217E4801F0CD
:10108C0004FD002202217C4801F0FFFC0022042117
:10109C00794801F0FAFC00220821774801F0F5FCB0
:1010AC0001221021744801F0F0FC01222021724829
:1010BC0001F0EBFC002240216F4801F0E6FCD7E088
:1010CC00012201216C4801F0E0FC002202216A4857
:1010DC0001F0DBFC00220421674801F0D6FC012260
:1010EC000821654801F0D1FC01221021624801F071
:1010FC00CCFC00222021604801F0C7FC00224021DA
:10110C005D4801F0C2FCB3E0002201215A4801F015
:10111C00BCFC01220221584801F0B7FC002204213A
:10112C00554801F0B2FC00220821534801F0ADFCF7
:10113C0001221021504801F0A8FC002220214E4829
:10114C0001F0A3FC002240214B4801F09EFC8FE0F3
:10115C0000220121484801F098FC01220221464856
:10116C0001F093FC00220421434801F08EFC002284
:10117C000821414801F089FC002210213E4801F071
:10118C0084FC002220213C4801F07FFC00224021FD
:10119C00394801F07AFC6BE000220121364801F05D
:1011AC0074FC00220221344801F06FFC002204215F
:1011BC00314801F06AFC012208212F4801F065FC3E
:1011CC00012210212C4801F060FC012220212A4828
:1011DC0001F05BFC01224021274801F056FC47E05E
:1011EC0000220121244801F050FC00220221224857
:1011FC0001F04BFC002204211F4801F046FC0022A8
:10120C0008211D4801F041FC002210211A4801F070
:10121C003CFC00222021184801F037FC0022402120
:10122C00154801F032FC23E000220121124801F0A4
:10123C002CFC00220221104801F027FC0022042182
:10124C000D4801F022FC002208210B4801F01DFC86
:10125C0001221021084801F018FC00222021064828
:10126C0001F013FC00224021034801F00EFC00BFEA
:10127C0000BF0837BD4680BD000C014080B582B070
:10128C0000AF78607B68092B00F2BC8101A252F898
:10129C0023F000BFC91200081D13000871130008C9
:1012AC00C5130008191400086D140008C1140008B7
:1012BC001515000869150008BD15000800228021CD
:1012CC00D24801F0E2FB00224FF48071CF4801F0CC
:1012DC00DCFB00224FF40071CC4801F0D6FB00225D
:1012EC004FF48061C94801F0D0FB00224FF400613B
:1012FC00C64801F0CAFB00224FF48051C34801F0EC
:10130C00C4FB01224FF40051C04801F0BEFB79E14F
:10131C0001228021BD4801F0B8FB00224FF48071FE
:10132C00BA4801F0B2FB00224FF40071B74801F04B
:10133C00ACFB01224FF48061B44801F0A6FB012202
:10134C004FF40061B14801F0A0FB01224FF4805131
:10135C00AE4801F09AFB01224FF40051AB4801F06A
:10136C0094FB4FE100228021A84801F08EFB002263
:10137C004FF48071A54801F088FB01224FF40071F5
:10138C00A24801F082FB00224FF480619F4801F0DB
:10139C007CFB00224FF400619C4801F076FB01229B
:1013AC004FF48051994801F070FB00224FF400512A
:1013BC00964801F06AFB25E100228021934801F058
:1013CC0064FB00224FF48071904801F05EFB002218
:1013DC004FF400718D4801F058FB00224FF48061EE
:1013EC008A4801F052FB01224FF40061874801F05A
:1013FC004CFB01224FF48051844801F046FB002243
:10140C004FF40051814801F040FBFBE001228021A8
:10141C007E4801F03AFB00224FF480717B4801F0CA
:10142C0034FB00224FF40071784801F02EFB0122AE
:10143C004FF48061754801F028FB01224FF40061E4
:10144C00724801F022FB00224FF480516F4801F0EA
:10145C001CFB00224FF400516C4801F016FBD1E04C
:10146C0000228021694801F010FB01224FF48071A9
:10147C00664801F00AFB00224FF40071634801F04A
:10148C0004FB00224FF48061604801F0FEFA012257
:10149C004FF400615D4801F0F8FA00224FF48051DE
:1014AC005A4801F0F2FA00224FF40051574801F06B
:1014BC00ECFAA7E000228021544801F0E6FA012260
:1014CC004FF48071514801F0E0FA00224FF40071A2
:1014DC004E4801F0DAFA00224FF480614B4801F0DB
:1014EC00D4FA00224FF40061484801F0CEFA0022F1
:1014FC004FF48051454801F0C8FA00224FF40051D6
:10150C00424801F0C2FA7DE0002280213F4801F000
:10151C00BCFA00224FF480713C4801F0B6FA00226C
:10152C004FF40071394801F0B0FA01224FF4806198
:10153C00364801F0AAFA01224FF40061334801F059
:10154C00A4FA01224FF48051304801F09EFA012296
:10155C004FF400512D4801F098FA53E000228021FD
:10156C002A4801F092FA00224FF48071274801F0CA
:10157C008CFA00224FF40071244801F086FA002204
:10158C004FF48061214801F080FA00224FF4006191
:10159C001E4801F07AFA00224FF480511B4801F0EA
:1015AC0074FA00224FF40051184801F06EFA29E049
:1015BC0000228021154801F068FA00224FF4807156
:1015CC00124801F062FA00224FF400710F4801F04A
:1015DC005CFA00224FF480610C4801F056FA0122AB
:1015EC004FF40061094801F050FA00224FF4805189
:1015FC00064801F04AFA00224FF40051034801F06A
:10160C0044FA00BF00BF0837BD4680BD000C014046
:10161C0080B582B000AF78607B68002B03D07B680C
:10162C00012B12D023E000224FF48051124801F01C
:10163C002CFA01224FF400510F4801F026FA0F4BFF
:10164C001B681846FFF78CFC11E001224FF4805107
:10165C00094801F01AFA00224FF40051064801F033
:10166C0014FA064B5B681846FFF77AFC00BF00BF04
:10167C000837BD4680BD00BF00080140B000002007
:10168C0080B582B000AF78607B68002B03D07B689C
:10169C00012B12D023E000224FF48041124801F0BC
:1016AC00F4F901224FF400410F4801F0EEF90F4B11
:1016BC001B681846FFF7E2FD11E001224FF4804150
:1016CC00094801F0E2F900224FF40041064801F00C
:1016DC00DCF9064B5B681846FFF7D0FD00BF00BF76
:1016EC000837BD4680BD00BF00080140B80000208F
:1016FC0080B500AFFFF726FBFFF782FBFFF7D8FBA7
:10170C0000BF80BD80B500AFFFF790F9FEF7AAFFD0
:10171C00FEF7B0FFFFF77CF800BF80BD80B500AFCF
:10172C0000F0B2FE00F04CF800F0D2F800F084F8B3
:10173C0000F058F9194B01221A60194B01221A605A
:10174C00184B01221A6001222021174801F09DF943
:10175C0001221021144801F098F901224FF4804124
:10176C00124801F092F901224FF400410F4801F0A8
:10177C008CF9012201210E4800F09AF90122022174
:10178C000C4800F095F9022202210B4800F090F968
:10179C000A4801F0D7FD00F00BFBFCE73C000020F1
:1017AC00400000204400002000080140000C0140D3
:1017BC0075200008FD16000811170008F80100201C
:1017CC0080B590B000AF07F118032822002118460D
:1017DC0002F068F93B1D00221A605A609A60DA60C8
:1017EC001A610223BB610123BB621023FB6200233D
:1017FC007B6307F11803184601F078F90346002BB8
:10180C0001D000F0D1F80F237B600023BB600023D4
:10181C00FB6000233B6100237B613B1D00211846CC
:10182C0001F0E4FB0346002B01D000F0BDF800BF33
:10183C004037BD4680BD000080B586B000AF07F1D3
:10184C00080300221A605A609A60DA603B46002254
:10185C001A605A601D4B4FF080421A601B4B41F6C8
:10186C003F725A60194B00229A60184B0922DA60B9
:10187C00164B00221A61154B00229A61134801F095
:10188C0011FD0346002B01D000F08EF84FF480536D
:10189C00BB6007F1080319460C4801F08FFE0346A4
:1018AC00002B01D000F080F800233B6000237B600C
:1018BC003B461946054802F067F80346002B01D059
:1018CC0000F072F800BF1837BD4680BDF80100204B
:1018DC0080B586B000AF07F1080300221A605A6089
:1018EC009A60DA60284B9B69274A43F004039361A2
:1018FC00254B9B6903F004037B607B68224B9B693F
:10190C00214A43F0080393611F4B9B6903F00803C2
:10191C003B603B6800224FF6F0711C4801F0B5F8B3
:10192C0000224FF6FF711A4801F0AFF80E23BB608E
:10193C000023FB6001233B6107F1080319461348A0
:10194C0000F012FF4FF6F073BB600123FB60002325
:10195C003B6102237B6107F1080319460B4800F039
:10196C0003FF4FF6FF73BB600123FB6000233B6159
:10197C0002237B6107F108031946054800F0F4FEC9
:10198C0000BF1837BD4680BD001002400008014062
:10199C00000C014080B582B000AF786000F068F8B0
:1019AC0000BF0837BD4680BD80B400AF72B600BF23
:1019BC00FEE7000080B400AF094B1B680133084AF6
:1019CC001360074B1B68002B04D1054B1B680133BC
:1019DC00034A1360024B1B681846BD4680BC704717
:1019EC00C800002080B483B000AF00237B6033E0DC
:1019FC001E497A6813469B0013449B000B4400223B
:101A0C001A601A497A6813469B0013449B000B44D6
:101A1C00043300221A6015497A6813469B0013445C
:101A2C009B000B44083300221A6010497A68134655
:101A3C009B0013449B000B440C3300221A700B497F
:101A4C007A6813469B0013449B000B44103300220E
:101A5C001A607B6801337B607B68092BC8D900BF97
:101A6C0000BF0C37BD4680BC704700BF4002002051
:101A7C0080B400AF0D4B1B68002B13D00B4B1B7BA2
:101A8C00002B0FD1094B5B68002B04D0074B5B6814
:101A9C00013B064A5360054B5B68002B02D1034B9C
:101AAC0001221A7300BFBD4680BC70474002002063
:101ABC0090B589B000AFF860B9607A600023FB770D
:101ACC000023BB6100233B610023FB7765E1FA7FB8
:101ADC00B64913469B0013449B000B441B68002B18
:101AEC000BD0FA7FB14913469B0013449B000B4467
:101AFC0004331B68BA691344BB61BA69BB689A4268
:101B0C0040F2DF80FA7FA94913469B0013449B00E7
:101B1C000B4404331A68BB69D31ABA6813443B618B
:101B2C00FA7FB969BB68C91AA04813469B001344D5
:101B3C009B000344043319600923FB7560E0FB7DB3
:101B4C00591EFA7D99480B469B000B449B0003449D
:101B5C001968964813469B0013449B000344196074
:101B6C00FB7D591EFA7D91480B469B000B449B0054
:101B7C000344043319688D4813469B0013449B009F
:101B8C00034404331960FB7D591EFA7D87480B46CC
:101B9C009B000B449B00034408331968834813468D
:101BAC009B0013449B00034408331960FB7D591EB2
:101BBC00FA7D7E480B469B000B449B00034410337C
:101BCC0019687A4813469B0013449B000344103356
:101BDC001960FB7D591EFA7D74480B469B000B4423
:101BEC009B0003440C331878704913469B00134434
:101BFC009B000B440C3302461A70FB7D013BFB75BA
:101C0C00FA7DFB7F9A429AD8FA7F684913469B006B
:101C1C0013449B000B44FA681A60FA7F634913461D
:101C2C009B0013449B000B4404333A691A60FA7FFF
:101C3C005E4913469B0013449B000B4408337A689F
:101C4C001A60FC7FFFF7B6FE0246584923469B00FC
:101C5C0023449B000B4410331A60FA7F53491346FC
:101C6C009B0013449B000B440C3300221A70FA7F28
:101C7C004E4913469B0013449B000B4404331B68D2
:101C8C00002B0AD1FA7F494913469B0013449B0051
:101C9C000B440C3301221A7009E0FA7F43491346B6
:101CAC009B0013449B000B440C3300221A70FA7FE8
:101CBC003E4913469B0013449B000B4410331B6896
:101CCC0070E0FA7F394913469B0013449B000B4488
:101CDC001B68002B5ED1FA7F344913469B001344DA
:101CEC009B000B44FA681A60FA7FB968BB69C91A81
:101CFC002E4813469B0013449B0003440433196085
:101D0C00FA7F2A4913469B0013449B000B4408336B
:101D1C007A681A60FC7FFFF74DFE02462349234682
:101D2C009B0023449B000B4410331A60FA7F1F491D
:101D3C0013469B0013449B000B440C3300221A7077
:101D4C00FA7F1A4913469B0013449B000B4404333F
:101D5C001B68002B0AD1FA7F144913469B001344CD
:101D6C009B000B440C3301221A7009E0FA7F0F49D7
:101D7C0013469B0013449B000B440C3300221A7037
:101D8C00FA7F0A4913469B0013449B000B44103303
:101D9C001B6807E0FB7F0133FB77FB7F092B7FF68A
:101DAC0096AE002318462437BD4690BD4002002055
:101DBC00B0B586B000AF114B1B7B002B19D00F4B6D
:101DCC001B6898470D4B00221A730C4B3C1D1D468B
:101DDC000FCD0FC42B6823607B69184600F010F8F8
:101DEC00FB68002B05D07B68F968FA681846FFF78A
:101DFC005FFE00BF1837BD46B0BD00BF40020020DB
:101E0C0080B485B000AF78607B68002B01D10023D3
:101E1C00DDE00023FB73D5E0FA7B6F4913469B0092
:101E2C0013449B000B4410331B687A689A4240F0B1
:101E3C00C680FB7B082B28D8FB7B5A1C66491346B3
:101E4C009B0013449B000B441B68002B1DD0FB7B99
:101E5C005A1C614913469B0013449B000B440433EA
:101E6C001968FA7B5C4813469B0013449B0003449F
:101E7C0004331B68FA7B01321944574813469B0004
:101E8C0013449B00034404331960FB7BBB7360E079
:101E9C00BB7B591CBA7B50480B469B000B449B00E8
:101EAC000344043319684C4813469B0013449B00AD
:101EBC00034404331960BB7B591CBA7B46480B4660
:101ECC009B000B449B00034408331968424813469B
:101EDC009B0013449B00034408331960BB7B591CC3
:101EEC00BA7B3D480B469B000B449B0003440C33D0
:101EFC001878394913469B0013449B000B440C3350
:101F0C0002461A70BB7B591CBA7B33480B469B00AC
:101F1C000B449B00034419682F4813469B00134441
:101F2C009B0003441960BB7B591CBA7B2A480B46A7
:101F3C009B000B449B00034410331968264813463E
:101F4C009B0013449B00034410331960BB7B01338B
:101F5C00BB73BB7B082B9BD9BA7B1F4913469B00D9
:101F6C0013449B000B4400221A60BA7B1A49134697
:101F7C009B0013449B000B44043300221A60BA7B71
:101F8C00154913469B0013449B000B440833002255
:101F9C001A60BA7B104913469B0013449B000B44F8
:101FAC000C3300221A70BA7B0B4913469B00134466
:101FBC009B000B44103300221A607B6807E0FB7B0C
:101FCC000133FB73FB7B092B7FF626AF00231846EE
:101FDC001437BD4680BC70474002002080B483B0EB
:101FEC0000AF78603960094B1B683A6892FBF3F2DA
:101FFC0007497B6841F82320064A7B68002142F898
:10200C00231000BF0C37BD4680BC70476C0000200D
:10201C00CC0000205C01002080B483B000AF78605D
:10202C000F4A7B6852F82330002B13DD0C4A7B6877
:10203C0052F823305A1E0A497B6841F82320084A7B
:10204C007B6852F82330002B04DC064A7B680121A4
:10205C0042F8231000BF0C37BD4680BC704700BF50
:10206C00CC0000205C01002080B500AF0020FFF701
:10207C00D3FF0120FFF7D0FF0220FFF7CDFF042094
:10208C00FFF7CAFF0520FFF7C7FF0620FFF7C4FFC5
:10209C000720FFF7C1FF0820FFF7BEFF0920FFF75D
:1020AC00BBFF00BF80BD000080B485B000AF154BF6
:1020BC009B69144A43F001039361124B9B6903F033
:1020CC000103BB60BB680F4BDB690E4A43F08053C6
:1020DC00D3610C4BDB6903F080537B607B680A4B4C
:1020EC005B68FB60FB6823F0E063FB60FB6843F01C
:1020FC008063FB60044AFB68536000BF1437BD4625
:10210C0080BC7047001002400000014080B584B0D4
:10211C0000AF78607B681B68B3F1804F13D10C4B18
:10212C00DB690B4A43F00103D361094BDB6903F014
:10213C000103FB60FB68002200211C2000F0DDFA8B
:10214C001C2000F0F6FA00BF1037BD4680BD00BF62
:10215C000010024080B400AFFEE780B400AFFEE791
:10216C0080B400AFFEE780B400AFFEE780B400AFF0
:10217C00FEE780B400AF00BFBD4680BC704780B4A2
:10218C0000AF00BFBD4680BC704780B400AF00BF3D
:10219C00BD4680BC704780B500AF00F0BBF900BFF6
:1021AC0080BD000080B500AF024801F017F900BFF8
:1021BC0080BD00BFF801002080B400AF00BFBD4659
:1021CC0080BC704780B500AF00224021074800F06A
:1021DC005CFC01228021054800F057FC01224FF4E1
:1021EC008071024800F051FC00BF80BD0008014026
:1021FC0080B500AF01224021074800F046FC0022C8
:10220C008021054800F041FC01224FF48071024806
:10221C0000F03BFC00BF80BD0008014080B500AF62
:10222C0001224021074800F030FC012280210548A2
:10223C0000F02BFC00224FF48071024800F025FCCA
:10224C0000BF80BD0008014080B500AF00224FF4F4
:10225C000071084800F019FC01224FF48061054818
:10226C0000F013FC01224FF40061024800F00DFC59
:10227C0000BF80BD0008014080B500AF01224FF4C3
:10228C000071084800F001FC00224FF48061054801
:10229C0000F0FBFB01224FF40061024800F0F5FB5B
:1022AC0000BF80BD0008014080B500AF01224FF493
:1022BC000071084800F0E9FB01224FF480610548E9
:1022CC0000F0E3FB00224FF40061024800F0DDFB5C
:1022DC0000BF80BD0008014080B500AF4021084818
:1022EC0000F0EBFB01228021054800F0CEFB01221F
:1022FC004FF48071024800F0C8FB00BF80BD00BFE6
:10230C000008014080B500AF8021084800F0D5FBE3
:10231C0001224021054800F0B8FB01224FF48071E6
:10232C00024800F0B2FB00BF80BD00BF00080140B6
:10233C0080B500AF4FF48071074800F0BEFB01225E
:10234C004021054800F0A1FB01228021024800F049
:10235C009CFB00BF80BD00BF0008014080B500AFF2
:10236C004FF40071084800F0A8FB01224FF4806183
:10237C00054800F08AFB01224FF40061024800F08E
:10238C0084FB00BF80BD00BF0008014080B500AFDA
:10239C004FF48061084800F090FB01224FF400716B
:1023AC00054800F072FB01224FF40061024800F076
:1023BC006CFB00BF80BD00BF0008014080B500AFC2
:1023CC004FF40061084800F078FB01224FF40071D3
:1023DC00054800F05AFB01224FF48061024800F0DE
:1023EC0054FB00BF80BD00BF0008014080B500AFAA
:1023FC0001224021104800F048FB012280210E48A8
:10240C0000F043FB01224FF480710B4800F03DFBC0
:10241C0001224FF40071084800F037FB01224FF401
:10242C008061054800F031FB01224FF40061024845
:10243C0000F02BFB00BF80BD00080140FFF7BCFE85
:10244C000B480C490C4A002302E0D458C450043306
:10245C00C4188C42F9D3094A094C002301E01360DB
:10246C000432A242FBD301F0F9FAFFF757F9704797
:10247C00000000207C000020043B00087C000020B1
:10248C000C030020FEE7000080B500AF084B1B6872
:10249C00074A43F010031360032000F023F90F20C8
:1024AC0000F008F8FFF700FE0023184680BD00BFBF
:1024BC000020024080B582B000AF7860124B1A68E1
:1024CC00124B1B7819464FF47A73B3FBF1F3B2FB42
:1024DC00F3F3184600F03BF90346002B01D001231F
:1024EC000EE07B680F2B0AD8002279684FF0FF3082
:1024FC0000F003F9064A7B681360002300E0012317
:10250C0018460837BD4680BD7000002078000020BA
:10251C007400002080B400AF054B1B781A46054BA5
:10252C001B681344034A136000BFBD4680BC704750
:10253C00780000200803002080B400AF024B1B6819
:10254C001846BD4680BC70470803002080B485B097
:10255C0000AF78607B6803F00703FB600C4BDB6813
:10256C00BB60BA684FF6FF031340BB60FB681A02EE
:10257C00BB68134343F0BF6343F40033BB60044AAE
:10258C00BB68D36000BF1437BD4680BC704700BF2A
:10259C0000ED00E080B400AF044BDB681B0A03F0D5
:1025AC0007031846BD4680BC704700BF00ED00E035
:1025BC0080B483B000AF0346FB7197F90730002B52
:1025CC000BDBFB7903F01F02064997F907305B0917
:1025DC00012000FA02F241F8232000BF0C37BD465F
:1025EC0080BC704700E100E080B483B000AF0346CC
:1025FC003960FB7197F90730002B0ADB3B68DAB2C4
:10260C000C4997F907301201D2B20B4483F800231E
:10261C000AE03B68DAB20849FB7903F00F03043B8C
:10262C001201D2B20B441A7600BF0C37BD4680BCE7
:10263C00704700BF00E100E000ED00E080B489B01D
:10264C0000AFF860B9607A60FB6803F00703FB61C8
:10265C00FB69C3F10703042B28BF0423BB61FB698F
:10266C000433062B02D9FB69033B00E000237B619A
:10267C004FF0FF32BB6902FA03F3DA43BB681A402E
:10268C007B699A404FF0FF317B6901FA03F3D94320
:10269C007B680B40134318462437BD4680BC7047FB
:1026AC0080B582B000AF78607B68013BB3F1807F6E
:1026BC0001D301230FE00A4A7B68013B53600F21D1
:1026CC004FF0FF30FFF790FF054B00229A60044B50
:1026DC0007221A60002318460837BD4680BD00BF8C
:1026EC0010E000E080B582B000AF78607868FFF74A
:1026FC002DFF00BF0837BD4680BD80B586B000AF4A
:10270C000346B9607A60FB7300237B61FFF742FFDD
:10271C0078617A68B9687869FFF790FF024697F993
:10272C000F3011461846FFF75FFF00BF1837BD4644
:10273C0080BD80B582B000AF0346FB7197F90730BE
:10274C001846FFF735FF00BF0837BD4680BD80B582
:10275C0082B000AF78607868FFF7A2FF0346184696
:10276C000837BD4680BD000080B48BB000AF7860E8
:10277C00396000237B6200233B6248E101227B6AC3
:10278C0002FA03F3FB613B681B68FA691340BB61F7
:10279C00BA69FB699A4240F037813B685B68A34A8F
:1027AC0093425ED0A14A934275D8A14A934258D025
:1027BC009F4A93426FD89F4A934252D09D4A93426C
:1027CC0069D89D4A93424CD09B4A934263D89B4A0A
:1027DC00934246D0994A93425DD8122B2AD8122B99
:1027EC0059D801A252F823F06F2800084928000894
:1027FC005B2800089D280008A3280008A3280008CF
:10280C00A3280008A3280008A3280008A328000870
:10281C00A3280008A3280008A3280008A328000860
:10282C00A3280008A3280008A328000851280008A2
:10283C0065280008824A934213D02CE03B68DB6881
:10284C003B6229E03B68DB6804333B6224E03B6875
:10285C00DB6808333B621FE03B68DB680C333B6290
:10286C001AE03B689B68002B02D104233B6213E007
:10287C003B689B68012B05D108233B627B68FA6996
:10288C001A6109E008233B627B68FA695A6103E02C
:10289C0000233B6200E000BFBB69FF2B01D87B68C3
:1028AC0001E07B6804337B61BB69FF2B02D87B6A38
:1028BC009B0002E07B6A083B9B003B617B691A68CA
:1028CC000F213B6901FA03F3DB431A40396A3B6978
:1028DC0001FA03F31A437B691A603B685B6803F0E7
:1028EC008053002B00F09080564B9B69554A43F067
:1028FC0001039361534B9B6903F00103BB60BB68FD
:10290C00514A7B6A9B08023352F82330FB607B6A86
:10291C0003F003039B000F2202FA03F3DB43FA6874
:10292C001340FB607B68494A93420DD07B68484A50
:10293C00934207D07B68474A934201D1022304E0BB
:10294C00032302E0012300E000237A6A02F0030271
:10295C0092009340FA681343FB603B497B6A9B08E7
:10296C000233FA6841F823203B685B6803F4801358
:10297C00002B06D0384B9A683749BB6913438B60E0
:10298C0006E0354B9A68BB69DB43334913408B60D7
:10299C003B685B6803F40013002B06D02E4BDA68FF
:1029AC002D49BB691343CB6006E02B4BDA68BB693E
:1029BC00DB4329491340CB603B685B6803F400336D
:1029CC00002B06D0244B5A682349BB6913434B6038
:1029DC0006E0214B5A68BB69DB431F4913404B602F
:1029EC003B685B6803F48033002B06D01A4B1A68E3
:1029FC001949BB6913430B6006E0174B1A68BB6996
:102A0C00DB43154913400B607B6A01337B623B68E7
:102A1C001A687B6A22FA03F3002B7FF4AFAE00BF77
:102A2C0000BF2C37BD4680BC704700BF0000321081
:102A3C0000003110000022100000211000001210C4
:102A4C00000011100010024000000140000801407D
:102A5C00000C0140001001400004014080B485B01E
:102A6C0000AF78600B467B807B689A687B8813404C
:102A7C00002B02D00123FB7301E00023FB73FB7BD3
:102A8C0018461437BD4680BC704780B483B000AF85
:102A9C0078600B467B8013467B707B78002B03D0D1
:102AAC007A887B681A6103E07B881A047B681A6158
:102ABC0000BF0C37BD4680BC704780B485B000AFFA
:102ACC0078600B467B807B68DB68FB607A88FB68F0
:102ADC0013401A04FB68D9437B880B401A437B686C
:102AEC001A6100BF1437BD4680BC704780B586B0F4
:102AFC0000AF78607B68002B01D101236CE27B680E
:102B0C001B6803F00103002B00F08780924B5B687D
:102B1C0003F00C03042B0CD08F4B5B6803F00C03FD
:102B2C00082B12D18C4B5B6803F48033B3F5803FD8
:102B3C000BD1894B1B6803F40033002B6CD07B68E2
:102B4C005B68002B68D1012346E27B685B68B3F5B8
:102B5C00803F06D1804B1B687F4A43F4803313605F
:102B6C002EE07B685B68002B0CD17B4B1B687A4A90
:102B7C0023F480331360784B1B68774A23F480234B
:102B8C0013601DE07B685B68B3F5A02F0CD1724B12
:102B9C001B68714A43F4802313606F4B1B686E4AA9
:102BAC0043F4803313600BE06B4B1B686A4A23F4CD
:102BBC0080331360684B1B68674A23F480231360CF
:102BCC007B685B68002B13D0FFF7B6FC386108E01C
:102BDC00FFF7B2FC02463B69D31A642B01D90323DD
:102BEC00FAE15D4B1B6803F40033002BF0D014E0CA
:102BFC00FFF7A2FC386108E0FFF79EFC02463B6938
:102C0C00D31A642B01D90323E6E1534B1B6803F45D
:102C1C000033002BF0D100E000BF7B681B6803F091
:102C2C000203002B63D04C4B5B6803F00C03002BAE
:102C3C000BD0494B5B6803F00C03082B1CD1464BA3
:102C4C005B6803F48033002B16D1434B1B6803F0F5
:102C5C000203002B05D07B681B69012B01D00123DB
:102C6C00BAE13D4B1B6823F0F8027B685B69DB0023
:102C7C00394913430B603AE07B681B69002B20D069
:102C8C00364B01221A60FFF757FC386108E0FFF75A
:102C9C0053FC02463B69D31A022B01D903239BE157
:102CAC002D4B1B6803F00203002BF0D02A4B1B6842
:102CBC0023F0F8027B685B69DB00274913430B6048
:102CCC0015E0264B00221A60FFF736FC386108E04D
:102CDC00FFF732FC02463B69D31A022B01D90323BE
:102CEC007AE11D4B1B6803F00203002BF0D17B68CB
:102CFC001B6803F00803002B3AD07B689B69002B00
:102D0C0019D0174B01221A60FFF716FC386108E046
:102D1C00FFF712FC02463B69D31A022B01D903239D
:102D2C005AE10D4B5B6A03F00203002BF0D001203B
:102D3C0000F09AFA1CE00A4B00221A60FFF7FCFB29
:102D4C0038610FE0FFF7F8FB02463B69D31A022B00
:102D5C0008D9032340E100BF0010024000004242AA
:102D6C00800442429E4B5B6A03F00203002BE9D1C4
:102D7C007B681B6803F00403002B00F0A680002383
:102D8C00FB75974BDB6903F08053002B0DD1944BF3
:102D9C00DB69934A43F08053D361914BDB6903F0B9
:102DAC008053BB60BB680123FB758E4B1B6803F41F
:102DBC008073002B18D18B4B1B688A4A43F48073A9
:102DCC001360FFF7B9FB386108E0FFF7B5FB02466B
:102DDC003B69D31A642B01D90323FDE0814B1B689B
:102DEC0003F48073002BF0D07B68DB68012B06D1D9
:102DFC007B4B1B6A7A4A43F0010313622DE07B681C
:102E0C00DB68002B0CD1764B1B6A754A23F001034F
:102E1C001362734B1B6A724A23F0040313621CE0A7
:102E2C007B68DB68052B0CD16D4B1B6A6C4A43F03D
:102E3C00040313626A4B1B6A694A43F00103136271
:102E4C000BE0674B1B6A664A23F001031362644B69
:102E5C001B6A634A23F0040313627B68DB68002B54
:102E6C0015D0FFF769FB38610AE0FFF765FB0246F6
:102E7C003B69D31A41F28832934201D90323ABE068
:102E8C00574B1B6A03F00203002BEED014E0FFF744
:102E9C0053FB38610AE0FFF74FFB02463B69D31A3C
:102EAC0041F28832934201D9032395E04C4B1B6AC3
:102EBC0003F00203002BEED1FB7D012B05D1484B17
:102ECC00DB69474A23F08053D3617B68DB69002BB5
:102EDC0000F08180424B5B6803F00C03082B61D03F
:102EEC007B68DB69022B46D13F4B00221A60FFF74F
:102EFC0023FB386108E0FFF71FFB02463B69D31A3E
:102F0C00022B01D9032367E0354B1B6803F00073D8
:102F1C00002BF0D17B681B6AB3F5803F08D1304B96
:102F2C005B6823F400327B689B682D4913434B602C
:102F3C002B4B5B6823F474127B68196A7B685B6AA1
:102F4C000B43274913434B60274B01221A60FFF7B1
:102F5C00F3FA386108E0FFF7EFFA02463B69D31A3F
:102F6C00022B01D9032337E01D4B1B6803F00073C0
:102F7C00002BF0D02FE01C4B00221A60FFF7DCFA7C
:102F8C00386108E0FFF7D8FA02463B69D31A022BE6
:102F9C0001D9032320E0124B1B6803F00073002BB4
:102FAC00F0D118E07B68DB69012B01D1012313E020
:102FBC000B4B5B68FB60FB6803F480327B681B6A1D
:102FCC009A4206D1FB6803F470127B685B6A9A42E2
:102FDC0001D0012300E0002318461837BD4680BD00
:102FEC0000100240007000406000424280B584B086
:102FFC0000AF786039607B68002B01D10123D0E0F1
:10300C006A4B1B6803F007033A689A4210D9674B66
:10301C001B6823F0070265493B6813430B60634B45
:10302C001B6803F007033A689A4201D00123B8E009
:10303C007B681B6803F00203002B20D07B681B68A5
:10304C0003F00403002B05D0594B5B68584A43F43A
:10305C00E06353607B681B6803F00803002B05D00A
:10306C00534B5B68524A43F460535360504B5B685C
:10307C0023F0F0027B689B684D4913434B607B68DF
:10308C001B6803F00103002B40D07B685B68012BAD
:10309C0007D1474B1B6803F40033002B15D10123D8
:1030AC007FE07B685B68022B07D1414B1B6803F008
:1030BC000073002B09D1012373E03D4B1B6803F017
:1030CC000203002B01D101236BE0394B5B6823F029
:1030DC0003027B685B68364913434B60FFF72CFA9D
:1030EC00F8600AE0FFF728FA0246FB68D31A41F2AF
:1030FC008832934201D9032353E02D4B5B6803F0D4
:10310C000C027B685B689B009A42EBD1274B1B68D7
:10311C0003F007033A689A4210D2244B1B6823F041
:10312C00070222493B6813430B60204B1B6803F0DA
:10313C0007033A689A4201D0012332E07B681B688E
:10314C0003F00403002B08D0194B5B6823F4E062F6
:10315C007B68DB68164913434B607B681B6803F084
:10316C000803002B09D0124B5B6823F460527B6878
:10317C001B69DB000E4913434B6000F021F802463B
:10318C000B4B5B681B0903F00F030A49CB5C22FA5B
:10319C0003F3094A1360094B1B681846FFF78AF9B9
:1031AC00002318461037BD4680BD00BF00200240EA
:1031BC0000100240D83A0008700000207400002073
:1031CC0080B487B000AF0023FB600023BB600023FA
:1031DC007B6100237B6000233B611E4B5B68FB60C3
:1031EC00FB6803F00C03042B02D0082B03D027E060
:1031FC00194B3B6127E0FB689B0C03F00F03174A4C
:10320C00D35C7B60FB6803F48033002B10D0114B34
:10321C005B685B0C03F00103114AD35CBB607B68F9
:10322C000D4A02FB03F2BB68B2FBF3F37B6104E0D3
:10323C007B680C4A02FB03F37B617B693B6102E018
:10324C00054B3B6100BF3B6918461C37BD4680BC33
:10325C00704700BF0010024000127A00E83A0008E4
:10326C00F83A000800093D0080B485B000AF7860E2
:10327C000A4B1B680A4AA2FB03235B0A7A6802FB0F
:10328C0003F3FB6000BFFB685A1EFA60002BF9D1F8
:10329C0000BF00BF1437BD4680BC704770000020D3
:1032AC00D34D621080B582B000AF78607B68002B84
:1032BC0001D1012341E07B6893F83D30DBB2002B58
:1032CC0006D17B68002283F83C207868FEF71EFF4D
:1032DC007B68022283F83D207B681A687B68043384
:1032EC001946104600F056FA7B68012283F84620F6
:1032FC007B68012283F83E207B68012283F83F2003
:10330C007B68012283F840207B68012283F84120EE
:10331C007B68012283F842207B68012283F84320DA
:10332C007B68012283F844207B68012283F84520C6
:10333C007B68012283F83D20002318460837BD46E0
:10334C0080BD000080B485B000AF78607B6893F8D6
:10335C003D30DBB2012B01D0012335E07B6802222A
:10336C0083F83D207B681B68DA687B681B6842F039
:10337C000102DA607B681B68164A934209D07B68AD
:10338C001B68B3F1804F04D07B681B68124A9342D0
:10339C0011D17B681B689B6803F00703FB60FB681B
:1033AC00062B10D07B681B681A687B681B6842F080
:1033BC0001021A6007E07B681B681A687B681B684F
:1033CC0042F001021A60002318461437BD4680BC37
:1033DC00704700BF002C01400004004080B584B051
:1033EC0000AF78607B681B68DB68FB607B681B68E0
:1033FC001B69BB60BB6803F00203002B20D0FB6889
:10340C0003F00203002B1BD07B681B686FF00202D9
:10341C001A617B6801221A777B681B689B6903F031
:10342C000303002B03D0786800F098F905E0786866
:10343C0000F08BF9786800F09AF97B6800221A7713
:10344C00BB6803F00403002B20D0FB6803F00403DB
:10345C00002B1BD07B681B686FF004021A617B6821
:10346C0002221A777B681B689B6903F44073002B5C
:10347C0003D0786800F072F905E0786800F065F91F
:10348C00786800F074F97B6800221A77BB6803F047
:10349C000803002B20D0FB6803F00803002B1BD083
:1034AC007B681B686FF008021A617B6804221A772C
:1034BC007B681B68DB6903F00303002B03D078687F
:1034CC0000F04CF905E0786800F03FF9786800F0FE
:1034DC004EF97B6800221A77BB6803F01003002BAF
:1034EC0020D0FB6803F01003002B1BD07B681B68FB
:1034FC006FF010021A617B6808221A777B681B68D0
:10350C00DB6903F44073002B03D0786800F026F9D4
:10351C0005E0786800F019F9786800F028F97B6804
:10352C0000221A77BB6803F00103002B0CD0FB6858
:10353C0003F00103002B07D07B681B686FF00102BE
:10354C001A617868FEF726FABB6803F08003002B3B
:10355C000CD0FB6803F08003002B07D07B681B6842
:10356C006FF080021A61786800F06FFABB6803F0A4
:10357C004003002B0CD0FB6803F04003002B07D05A
:10358C007B681B686FF040021A61786800F0F8F8ED
:10359C00BB6803F02003002B0CD0FB6803F0200366
:1035AC00002B07D07B681B686FF020021A617868CB
:1035BC0000F042FA00BF1037BD4680BD80B584B024
:1035CC0000AF786039600023FB737B6893F83C3064
:1035DC00012B01D10223B4E07B68012283F83C204B
:1035EC007B68022283F83D207B681B689B68BB606C
:1035FC00BB6823F07703BB60BB6823F47F43BB60DD
:10360C007B681B68BA689A603B681B68B3F5005FFF
:10361C003ED0B3F5005F00F28780B3F5805F00F019
:10362C008680B3F5805F7FD8702B1AD0702B7BD837
:10363C00602B50D0602B77D8502B3CD0502B73D8AC
:10364C00402B58D0402B6FD8302B64D0302B6BD8FC
:10365C00202B60D0202B67D8002B5CD0102B5AD09D
:10366C0062E07B6818683B6899683B685A683B68FD
:10367C00DB6800F06AF97B681B689B68BB60BB6801
:10368C0043F07703BB607B681B68BA689A604FE0B5
:10369C007B6818683B6899683B685A683B68DB68CC
:1036AC0000F053F97B681B689A687B681B6842F4CE
:1036BC0080429A603CE07B6818683B6859683B68BC
:1036CC00DB681A4600F0CAF87B681B685021184664
:1036DC0000F021F92CE07B6818683B6859683B685E
:1036EC00DB681A4600F0E8F87B681B686021184616
:1036FC0000F011F91CE07B6818683B6859683B685E
:10370C00DB681A4600F0AAF87B681B684021184653
:10371C0000F001F90CE07B681A683B681B681946DD
:10372C00104600F0F8F803E00123FB7300E000BF43
:10373C007B68012283F83D207B68002283F83C20C3
:10374C00FB7B18461037BD4680BD80B483B000AFFC
:10375C00786000BF0C37BD4680BC704780B483B026
:10376C0000AF786000BF0C37BD4680BC704780B49A
:10377C0083B000AF786000BF0C37BD4680BC70478B
:10378C0080B483B000AF786000BF0C37BD4680BCFE
:10379C007047000080B485B000AF786039607B68FA
:1037AC001B68FB607B682B4A934207D07B68B3F1A4
:1037BC00804F03D07B68284A934208D1FB6823F0E2
:1037CC007003FB603B685B68FA681343FB607B68C3
:1037DC00204A934207D07B68B3F1804F03D07B68BB
:1037EC001D4A934208D1FB6823F44073FB603B688D
:1037FC00DB68FA681343FB60FB6823F080023B68CC
:10380C005B691343FB607B68FA681A603B689A68D3
:10381C007B68DA623B681A687B689A627B680D4A3F
:10382C00934203D13B681A697B681A637B68012257
:10383C005A617B681B6903F00103002B05D07B6880
:10384C001B6923F001027B681A6100BF1437BD4667
:10385C0080BC7047002C01400004004080B487B04D
:10386C0000AFF860B9607A60FB681B6A7B61FB682B
:10387C001B6A23F00102FB681A62FB689B693B61BF
:10388C003B6923F0F0033B617B681B013A691343EE
:10389C003B617B6923F00A037B617A69BB68134344
:1038AC007B61FB683A699A61FB687A691A6200BFAE
:1038BC001C37BD4680BC704780B487B000AFF86041
:1038CC00B9607A60FB681B6A7B61FB681B6A23F03A
:1038DC001002FB681A62FB689B693B613B6923F42D
:1038EC0070433B617B681B033A6913433B617B6903
:1038FC0023F0A0037B61BB681B017A6913437B61D6
:10390C00FB683A699A61FB687A691A6200BF1C37D6
:10391C00BD4680BC704780B485B000AF786039601C
:10392C007B689B68FB60FB6823F07003FB603A6864
:10393C00FB68134343F00703FB607B68FA689A60EB
:10394C0000BF1437BD4680BC704780B487B000AF51
:10395C00F860B9607A603B60FB689B687B617B694F
:10396C0023F47F437B613B681A027B681A43BB6874
:10397C0013437A6913437B61FB687A699A6000BFD1
:10398C001C37BD4680BC704780B485B000AF7860F2
:10399C0039607B6893F83C30012B01D1022341E064
:1039AC007B68012283F83C207B68022283F83D204F
:1039BC007B681B685B68FB607B681B689B68BB60F3
:1039CC00FB6823F07003FB603B681B68FA681343C9
:1039DC00FB607B681B68FA685A607B681B68144A3A
:1039EC00934209D07B681B68B3F1804F04D07B688D
:1039FC001B68104A93420CD1BB6823F08003BB6058
:103A0C003B685B68BA681343BB607B681B68BA6829
:103A1C009A607B68012283F83D207B68002283F842
:103A2C003C20002318461437BD4680BC704700BFAD
:103A3C00002C01400004004080B483B000AF7860DB
:103A4C0000BF0C37BD4680BC704780B483B000AF5C
:103A5C00786000BF0C37BD4680BC704770B500263F
:103A6C000C4D0D4C641BA410A64209D100F022F899
:103A7C0000260A4D0A4C641BA410A64205D170BD49
:103A8C0055F8043B98470136EEE755F8043B984748
:103A9C000136F2E7FC3A0008FC3A0008FC3A000850
:103AAC00003B000803460244934200D1704703F8E0
:103ABC00011BF9E7F8B500BFF8BC08BC9E4670477F
:0C3ACC00F8B500BFF8BC08BC9E4670476F
:103AD80000000000000000000102030406070809B6
:103AE80002030405060708090A0B0C0D0E0F101037
:043AF80001020000C7
:043AFC00310100088C
:043B00000D010008AB
:103B040001000000010000000100000001000000AD
:103B1400010000000100000001000000010000009D
:103B2400010000000100000001000000010000008D
:103B34000100000001000000C800000001000000B6
:103B44000100000001000000050000000200000068
:103B54000300000005000000020000000300000054
:103B64000500000002000000030000000A0000003D
:0C3B740000127A001000000001000000A8
:040000050800244982
:00000001FF
