:020000040800F2
:10000000002800203D1D0008551A00085B1A000852
:10001000611A0008671A00086D1A00080000000045
:10002000000000000000000000000000731A00083B
:100030007F1A0008000000008B1A0008971A0008B9
:10004000851D0008851D0008851D0008851D000808
:10005000851D0008851D0008851D0008851D0008F8
:10006000851D0008851D0008851D0008851D0008E8
:10007000851D0008851D0008851D0008851D0008D8
:10008000851D0008851D0008851D0008851D0008C8
:10009000851D0008851D0008851D0008851D0008B8
:1000A000851D0008851D0008851D0008851D0008A8
:1000B000A51A0008851D000800000000851D000825
:1000C000851D00080000000000000000851D0008DC
:1000D00000000000851D0008851D000800000000CC
:1000E000851D0008851D0008851D00080000000012
:1000F0000000000000000000000000000000000000
:0C01000000000000000000005FF808F1A3
:10010C0010B5054C237833B9044B13B10448AFF345
:10011C0000800123237010BD7C0000200000000033
:10012C00FC33000808B5034B1BB103490348AFF37C
:10013C00008008BD0000000080000020FC33000897
:10014C0080B500AF984B1B68013B062B00F21D815C
:10015C0001A252F823F000BF81010008AF01000892
:10016C003D020008C9020008550300086B03000893
:10017C00810300088C4B02221A608C4B1B688C4A42
:10018C0013608A4B1B684FF47A7202FB03F3194617
:10019C00012001F09BFB4FF47A71042001F096FBD7
:1001AC0000E101F089FC824B1B68824A82FB03123E
:1001BC009210DB17D31A804A13607D4B19687D4B64
:1001CC0083FB01239A10CB17D21A13469B001344BE
:1001DC005B00CA1A784B5A60784B1B69012B10D103
:1001EC00734B1B68013B724A1360714B1B68002BED
:1001FC0002DA6F4B00221A604FF47A71042001F07E
:10020C0065FB6E4B5B68012B40F0C180664B032293
:10021C001A606B4B1B684FF47A7202FB03F319469E
:10022C00012001F053FB664B1B68664A1360AEE07D
:10023C0001F06EFC634B1B685E4A82FB031292104A
:10024C00DB17D31A5C4A13605E4B1968594B83FB5E
:10025C0001239A10CB17D21A13469B0013445B0050
:10026C00CA1A554B5A60554B1B69012B10D1554B73
:10027C001B68013B534A1360524B1B68002B02DA7C
:10028C00504B00221A604FF47A71042001F01EFBCF
:10029C004A4B5B68012B7CD1434B04221A604A4BBE
:1002AC001B684A4A1360484B1B684FF47A7202FB76
:1002BC0003F31946012001F009FB6AE001F012FC7E
:1002CC00424B1B683B4A82FB03129210DB17D31A7A
:1002DC00394A13603D4B1968364B83FB01239A1046
:1002EC00CB17D21A13469B0013445B00CA1A324B2D
:1002FC005A60324B1B69012B10D1344B1B68013BEC
:10030C00324A1360314B1B68002B02DA2F4B002250
:10031C001A604FF47A71042001F0D8FA274B5B680D
:10032C00012B38D1204B02221A60204B1B684FF452
:10033C007A7202FB03F31946012001F0C7FA1B4B3A
:10034C001B681B4A136026E01C4B1B6A012B24D133
:10035C0001F03CFCFA21082001F0B8FA1DE0174B23
:10036C001B6A012B1BD101F047FCFA21082001F07C
:10037C00ADFA14E0114B1B6A012B12D101F052FCA7
:10038C00FA21082001F0A2FA0BE000BF0AE000BF3E
:10039C0008E000BF06E000BF04E000BF02E000BFC1
:1003AC0000E000BF00BF80BD4000002048000020DE
:1003BC005400002067666666B000002058010020DB
:1003CC00500000205C0000204C0000205800002051
:1003DC0080B500AF994B1B68013B062B00F21E81C8
:1003EC0001A252F823F000BF110400083F040008DA
:1003FC00CD04000859050008E7050008FD050008B4
:10040C00130600088D4B03221A608D4B1B688D4A16
:10041C0013608B4B1B684FF47A7202FB03F3194683
:10042C00022001F053FA4FF47A71072001F04EFAD2
:10043C0001E101F083FB844B1B68844A82FB0312AD
:10044C009210DB17D31A824A13607F4B19687F4BCB
:10045C0083FB01239A10CB17D21A13469B0013442B
:10046C005B00CA1A7A4B5A607A4BDB69012B10D1AC
:10047C00754B1B68013B744A1360734B1B68002B54
:10048C0002DA714B00221A604FF47A71072001F0E6
:10049C001DFA704B9B68012B40F0C280674B012208
:1004AC001A60674B1B684FF47A7202FB03F3194610
:1004BC00022001F00BFA624B1B68624A1360AFE03A
:1004CC0001F06CFB5F4B1B68604A82FB03129210BD
:1004DC00DB17D31A5E4A13605A4B19685B4B83FBCC
:1004EC0001239A10CB17D21A13469B0013445B00BE
:1004FC00CA1A574B5A60574BDB69012B10D1514B21
:10050C001B68013B4F4A13604E4B1B68002B02DAF1
:10051C004C4B00221A604FF47A71072001F0D6F987
:10052C004C4B9B68012B7DD1444B04221A604A4BE7
:10053C001B684FF47A7202FB03F31946022001F098
:10054C00C5F9454B1B68454A13606BE001F00EFB87
:10055C00424B1B683D4A82FB03129210DB17D31AE5
:10056C003B4A13603D4B1968384B83FB01239A10AF
:10057C00CB17D21A13469B0013445B00CA1A344B98
:10058C005A60344BDB69012B11D1344B1B68013B96
:10059C00324A1360314B1B68002B03D12E4B1B6866
:1005AC002E4A13604FF47A71072001F08FF9294B12
:1005BC009B68012B38D1214B02221A60284B1B68F7
:1005CC004FF47A7202FB03F31946022001F07EF914
:1005DC00234B1B681C4A136026E01E4B5B6A012BE5
:1005EC0024D101F035FBFA21092001F06FF91DE04F
:1005FC00184B5B6A012B1BD101F042FBFA2109203D
:10060C0001F064F914E0134B5B6A012B12D101F079
:10061C004FFBFA21092001F059F90BE000BF0AE069
:10062C0000BF08E000BF06E000BF04E000BF02E02E
:10063C0000BF00E000BF00BF80BD00BF4400002031
:10064C00500000206800002060000020676666668D
:10065C00B8000020580100204C000020640000204D
:10066C004800002080B500AFFFF76AFDFFF7B0FE31
:10067C0000BF80BD80B500AF4B4B1B68143B032BF8
:10068C0000F2868001A252F823F000BFA9060008F0
:10069C00DD0600081D0700085D070008434B5B6979
:1006AC00012B77D1424B1B68184600F073FF404B6F
:1006BC001B6801333E4A13603D4B1B68022B02D171
:1006CC003B4B00221A60FA21052001F0FFF861E093
:1006DC00384B00221A60374B02225A60334B5B694D
:1006EC00012B59D1324B1B68184600F053FF304B8D
:1006FC001B6801332E4A13602D4B1B68022B02D151
:10070C002B4B00221A60FA21052001F0DFF843E0A0
:10071C00284B00221A60274B03225A60234B5B693B
:10072C00012B3BD1224B1B68184600F033FF204BAA
:10073C001B6801331E4A13601D4B1B68022B02D130
:10074C001B4B00221A60FA21052001F0BFF825E0AE
:10075C00184B00221A60174B04225A60134B5B692A
:10076C00012B1DD1124B1B68184600F013FF104BC8
:10077C001B6801330E4A13600D4B1B68022B02D110
:10078C000B4B00221A60FA21052001F09FF807E0BC
:10079C0000BF06E000BF04E000BF02E000BF00E0C5
:1007AC0000BF00BF80BD00BF00000020580100202A
:1007BC00C0000020B000002080B500AF674B1B6864
:1007CC00143B032B00F2C78001A252F823F000BFA8
:1007DC00ED0700082308000889080008EF08000846
:1007EC005F4B9B69012B40F0AF805E4B1B6818463A
:1007FC0000F008FF5B4B1B6801335A4A1360594BDE
:10080C001B68022B02D1574B00221A60FA210620DA
:10081C0001F05CF898E0544B1B68544A82FB0312BD
:10082C009210DB17D31A524A13604F4B19684F4B77
:10083C0083FB01239A10CB17D21A13469B00134447
:10084C005B00CA1A4A4B5A60454B9B69012B7DD100
:10085C00444B1B68184600F0D5FE424B1B68013315
:10086C00404A13603F4B1B68022B02D13D4B0022C8
:10087C001A60FA21062001F029F867E03D4B1B684D
:10088C003A4A82FB03129210DB17D31A384A1360D0
:10089C00384B1968354B83FB01239A10CB17D21AAE
:1008AC0013469B0013445B00CA1A314B5A602C4B05
:1008BC009B69012B4CD12B4B1B68184600F0A2FEF8
:1008CC00284B1B680133274A1360264B1B68022BED
:1008DC0002D1244B00221A60FA21062000F0F6FF08
:1008EC0036E0254B1B68214A82FB03129210DB1762
:1008FC00D31A1F4A1360204B19681C4B83FB01232E
:10090C009A10CB17D21A13469B0013445B00CA1AD9
:10091C00174B5A60124B9B69012B1BD1114B1B6857
:10092C00184600F06FFE0F4B1B6801330D4A136025
:10093C000C4B1B68022B02D10A4B00221A60FA21C5
:10094C00062000F0C3FF05E000BF04E000BF02E09A
:10095C0000BF00E000BF00BF80BD00BF040000204E
:10096C0058010020C4000020EC0100206766666678
:10097C00B8000020F0010020E801002080B500AF95
:10098C00A64B1B68013B0D2B00F23C8101A252F8D7
:10099C0023F000BFD9090008110C0008110C000845
:1009AC00110C0008110C0008110C0008110C0008A7
:1009BC00110C0008110C0008110C0008E1090008CA
:1009CC00450A0008C90A00084B0B0008934B0B2280
:1009DC001A6020E100F03AF90346012B20D18F4B2D
:1009EC000C221A608E4B15221A608E4B15221A603F
:1009FC008D4B05221A608D4B05221A6001F070F99F
:100A0C00FA21082000F062FFFA21092000F05EFFB5
:100A1C00874B1B68874A13601021874801F0EBFC59
:100A2C0000F04AF90346012B40F0EE800122202110
:100A3C00814801F0C8FCE7E000F008F90346012BFF
:100A4C0020D1764B0D221A60754B16221A60754B0D
:100A5C0016221A60744B06221A60744B06221A6016
:100A6C0001F03EF9FA21082000F030FFFA210920AC
:100A7C0000F02CFF714B1B68714A136010216E48FB
:100A8C0001F0B9FC00F0F4F80346012B0BD1694BD3
:100A9C001B680133674A1360664B1B68632B02DDCE
:100AAC00644B01221A6000F0F5F80346012B40F06C
:100ABC00AD80604B1B685E4A1360A7E000F0C6F87F
:100ACC000346012B20D1554B0E221A60544B172292
:100ADC001A60544B17221A60534B07221A60534B5F
:100AEC0007221A6001F0FCF8FA21082000F0EEFE53
:100AFC00FA21092000F0EAFE524B1B68524A13609F
:100B0C0010214D4801F077FC00F0B2F80346012BA0
:100B1C000BD14B4B1B680133494A1360484B1B6884
:100B2C00632B02DD464B01221A6000F0B3F803463A
:100B3C00012B6DD1424B1B68404A136068E000F0FA
:100B4C0085F80346012B39D1354B14221A60354BED
:100B5C0014221A60314B0B221A60334B01221A609B
:100B6C00324B01221A602E4B14221A602D4B142288
:100B7C001A60344B1A68314B1B681A442C4B1B6897
:100B8C009A4207DD2F4B1A682C4B1B681344284ADA
:100B9C0013600FE02B4B1A68284B1B681A44244B2C
:100BAC001B689A4206DA224B1A68244B1B68D31A2C
:100BBC00244A13601021204801F01DFC00F07CF841
:100BCC000346002B03D010211B4801F014FC00F04D
:100BDC004FF80346012B0BD11B4B1B6801331A4AF0
:100BEC001360194B1B68632B02DD174B01221A6033
:100BFC0000F050F80346012B0CD1134B1B68114A23
:100C0C00136007E000BF06E000BF04E000BF02E095
:100C1C0000BF00E000BF00BF80BD00BF3C00002053
:100C2C0000000020040000204000002044000020B0
:100C3C0048000020EC010020000801404C0000207E
:100C4C00F001002050000020E801002080B400AF2B
:100C5C00064B1B68012B04D1044B00221A600123A4
:100C6C0000E000231846BD4680BC70479800002069
:100C7C0080B400AF064B1B68012B04D1044B00223F
:100C8C001A60012300E000231846BD4680BC704763
:100C9C009C00002080B400AF064B1B68012B04D1D4
:100CAC00044B00221A60012300E000231846BD46C5
:100CBC0080BC7047A000002080B400AF064B1B68BE
:100CCC00012B04D1044B00221A60012300E0002305
:100CDC001846BD4680BC7047A400002080B500AF0C
:100CEC00204B1B68204A1360204B1B681D4A136065
:100CFC0002211F4801F050FB03461A461B4B1A6099
:100D0C00194B1A68174B1B689A4229D1154B1A6854
:100D1C00164B1B689A4223D1164B1A68134B1B684F
:100D2C009A420ED0114B1B68124A13600F4B1B6872
:100D3C00002B15D1104B01221A60104BC8221A60DF
:100D4C000EE00E4B1B68013B0C4A13600B4B1B68EF
:100D5C00002B05DC0A4B01221A60064B01221A609B
:100D6C0000BF80BD140000200800002020000020DF
:100D7C00000801402C0000209800002038000020C2
:100D8C00A400002080B500AF224B5B68224A536060
:100D9C00224B5B681F4A53600421214801F0FCFA86
:100DAC0003461A461D4B5A601B4B5A68194B5B681D
:100DBC009A422DD1174B5A68184B5B689A4227D12F
:100DCC00184B5A68154B5B689A4212D0134B5B68F0
:100DDC00144A5360114B5B68002B06D1124B012255
:100DEC001A60124BC8221A6012E00F4B00221A60D4
:100DFC000EE00E4B1B68013B0C4A13600B4B1B683F
:100E0C00002B05DC0A4B01221A60064B01225A60AA
:100E1C0000BF80BD1400002008000020200000202E
:100E2C00000801402C0000209C000020380000200D
:100E3C00A800002080B500AF224B9B68224A93602B
:100E4C00224B9B681F4A93600821214801F0A4FAA9
:100E5C0003461A461D4B9A601B4B9A68194B9B68AC
:100E6C009A422DD1174B9A68184B9B689A4227D1FE
:100E7C00184B9A68154B9B689A4212D0134B9B687F
:100E8C00144A9360114B9B68002B06D1124B012224
:100E9C001A60124BC8221A6012E00F4B00221A6023
:100EAC000EE00E4B1B68013B0C4A13600B4B1B688E
:100EBC00002B05DC0A4B01221A60064B01229A60BA
:100ECC0000BF80BD1400002008000020200000207E
:100EDC00000801402C000020A00000203800002059
:100EEC00AC00002080B582B000AF78607B68092B25
:100EFC0000F2808101A252F823F000BF310F0008EC
:100F0C00790F0008C10F00080910000851100008E3
:100F1C0099100008E110000829110008711100084F
:100F2C00B911000800220121B44801F04CFA00224A
:100F3C000221B24801F047FA00220421AF4801F027
:100F4C0042FA00220821AD4801F03DFA002210219E
:100F5C00AA4801F038FA00222021A84801F033FAFF
:100F6C0001224021A54801F02EFA43E10122012182
:100F7C00A24801F028FA00220221A04801F023FA2D
:100F8C00002204219D4801F01EFA012208219B48F1
:100F9C0001F019FA01221021984801F014FA0122EB
:100FAC002021964801F00FFA01224021934801F0CC
:100FBC000AFA1FE100220121904801F004FA0022F4
:100FCC0002218E4801F0FFF9012204218B4801F027
:100FDC00FAF900220821894801F0F5F900221021C4
:100FEC00864801F0F0F901222021844801F0EBF948
:100FFC0000224021814801F0E6F9FBE000220121AA
:10100C007E4801F0E0F9002202217C4801F0DBF976
:10101C0000220421794801F0D6F9002208217748F2
:10102C0001F0D1F901221021744801F0CCF9012210
:10103C002021724801F0C7F9002240216F4801F0CD
:10104C00C2F9D7E0012201216C4801F0BCF9002261
:10105C0002216A4801F0B7F900220421674801F027
:10106C00B2F901220821654801F0ADF901221021E5
:10107C00624801F0A8F900222021604801F0A3F990
:10108C00002240215D4801F09EF9B3E000220121CD
:10109C005A4801F098F901220221584801F093F9BD
:1010AC0000220421554801F08EF9002208215348F2
:1010BC0001F089F901221021504801F084F9002235
:1010CC0020214E4801F07FF9002240214B4801F0CD
:1010DC007AF98FE000220121484801F074F90122CD
:1010EC000221464801F06FF900220421434801F027
:1010FC006AF900220821414801F065F9002210210B
:10110C003E4801F060F9002220213C4801F05BF9D7
:10111C0000224021394801F056F96BE000220121F0
:10112C00364801F050F900220221344801F04BF905
:10113C0000220421314801F046F9012208212F48F0
:10114C0001F041F9012210212C4801F03CF9012257
:10115C0020212A4801F037F901224021274801F0CB
:10116C0032F947E000220121244801F02CF9002239
:10117C000221224801F027F9002204211F4801F026
:10118C0022F9002208211D4801F01DF9002210212E
:10119C001A4801F018F900222021184801F013F91F
:1011AC0000224021154801F00EF923E00022012114
:1011BC00124801F008F900220221104801F003F94D
:1011CC00002204210D4801F0FEF8002208210B48F2
:1011DC0001F0F9F801221021084801F0F4F800227E
:1011EC002021064801F0EFF800224021034801F0CD
:1011FC00EAF800BF00BF0837BD4680BD000C0140B7
:10120C0080B582B000AF78607B68092B00F2BC819E
:10121C0001A252F823F000BF4D120008A1120008E1
:10122C00F5120008491300089D130008F11300087B
:10123C004514000899140008ED1400084115000825
:10124C0000228021D24801F0BEF800224FF48071B8
:10125C00CF4801F0B8F800224FF40071CC4801F0EF
:10126C00B2F800224FF48061C94801F0ACF80022BA
:10127C004FF40061C64801F0A6F800224FF48051EB
:10128C00C34801F0A0F801224FF40051C04801F00E
:10129C009AF879E101228021BD4801F094F80022EE
:1012AC004FF48071BA4801F08EF800224FF40071AF
:1012BC00B74801F088F801224FF48061B44801F07E
:1012CC0082F801224FF40061B14801F07CF8012250
:1012DC004FF48051AE4801F076F801224FF40051E2
:1012EC00AB4801F070F84FE100228021A84801F0D2
:1012FC006AF800224FF48071A54801F064F80122CD
:10130C004FF40071A24801F05EF800224FF48061A6
:10131C009F4801F058F800224FF400619C4801F0FE
:10132C0052F801224FF48051994801F04CF80022F8
:10133C004FF40051964801F046F825E10022802137
:10134C00934801F040F800224FF48071904801F06E
:10135C003AF800224FF400718D4801F034F8002265
:10136C004FF480618A4801F02EF801224FF400619D
:10137C00874801F028F801224FF48051844801F08D
:10138C0022F800224FF40051814801F01CF8FBE0D8
:10139C00012280217E4801F016F800224FF4807162
:1013AC007B4801F010F800224FF40071784801F0EE
:1013BC000AF801224FF48061754801F004F801220B
:1013CC004FF40061724800F0FEFF00224FF4805190
:1013DC006F4800F0F8FF00224FF400516C4800F009
:1013EC00F2FFD1E000228021694800F0ECFF0122DD
:1013FC004FF48071664800F0E6FF00224FF4007154
:10140C00634800F0E0FF00224FF48061604800F078
:10141C00DAFF01224FF400615D4800F0D4FF002296
:10142C004FF480515A4800F0CEFF00224FF4005187
:10143C00574800F0C8FFA7E000228021544800F074
:10144C00C2FF01224FF48071514800F0BCFF002212
:10145C004FF400714E4800F0B6FF00224FF480614B
:10146C004B4800F0B0FF00224FF40061484800F0F8
:10147C00AAFF00224FF48051454800F0A4FF00223F
:10148C004FF40051424800F09EFF7DE00022802185
:10149C003F4800F098FF00224FF480713C4800F068
:1014AC0092FF00224FF40071394800F08CFF0122AA
:1014BC004FF48061364800F086FF01224FF4006142
:1014CC00334800F080FF01224FF48051304800F087
:1014DC007AFF01224FF400512D4800F074FF53E0C5
:1014EC00002280212A4800F06EFF00224FF4807108
:1014FC00274800F068FF00224FF40071244800F0E8
:10150C0062FF00224FF48061214800F05CFF002252
:10151C004FF400611E4800F056FF00224FF480513A
:10152C001B4800F050FF00224FF40051184800F007
:10153C004AFF29E000228021154800F044FF0022D8
:10154C004FF48071124800F03EFF00224FF40071FE
:10155C000F4800F038FF00224FF480610C4800F077
:10156C0032FF01224FF40061094800F02CFF0022E9
:10157C004FF48051064800F026FF00224FF4005132
:10158C00034800F020FF00BF00BF0837BD4680BDF8
:10159C00000C014080B582B000AF78607B68002BF6
:1015AC0003D07B68012B12D023E000224FF4805132
:1015BC00124800F008FF01224FF400510F4800F0D0
:1015CC0002FF0F4B1B681846FFF78CFC11E0012241
:1015DC004FF48051094800F0F6FE00224FF4005100
:1015EC00064800F0F0FE064B5B681846FFF77AFCE5
:1015FC0000BF00BF0837BD4680BD00BF00080140DA
:10160C00B000002080B582B000AF78607B68002B02
:10161C0003D07B68012B12D023E000224FF48041D1
:10162C00124800F0D0FE01224FF400410F4800F0A8
:10163C00CAFE0F4B1B681846FFF7E2FD11E00122B2
:10164C004FF48041094800F0BEFE00224FF40041E7
:10165C00064800F0B8FE064B5B681846FFF7D0FD55
:10166C0000BF00BF0837BD4680BD00BF0008014069
:10167C00B800002080B500AF00F080FB00F026F829
:10168C0000F0ACF800F05EF80F4801F0F9FA4FF4F6
:10169C007A71002000F01AF9FA21032000F016F9F3
:1016AC003221052000F012F93221062000F00EF94B
:1016BC00FFF764F9FEF7D6FFFEF7DCFFFFF77CF8C7
:1016CC00052000F0BDFBF3E7F401002080B590B0DD
:1016DC0000AF07F1180328220021184601F080FE04
:1016EC003B1D00221A605A609A60DA601A6102236C
:1016FC00BB610123BB621023FB6200237B6307F1F8
:10170C001803184600F090FE0346002B01D000F0A1
:10171C00D7F80F237B600023BB600023FB60002302
:10172C003B6100237B613B1D0021184601F0FCF856
:10173C000346002B01D000F0C3F800BF4037BD4674
:10174C0080BD000080B586B000AF07F10803002211
:10175C001A605A609A60DA603B4600221A605A603E
:10176C001D4B4FF080421A601B4B41F63F725A6082
:10177C00194B00229A60184B0922DA60164B002292
:10178C001A61154B00229A61134801F029FA03469D
:10179C00002B01D000F094F84FF48053BB6007F19C
:1017AC00080319460C4801F0A7FB0346002B01D097
:1017BC0000F086F800233B6000237B603B46194613
:1017CC00054801F07FFD0346002B01D000F078F8AE
:1017DC0000BF1837BD4680BDF401002080B586B02F
:1017EC0000AF07F1080300221A605A609A60DA60B1
:1017FC00284B9B69274A43F004039361254B9B6953
:10180C0003F004037B607B68224B9B69214A43F005
:10181C00080393611F4B9B6903F008033B603B6813
:10182C0000224FF6F0711C4800F0CDFD002243F66B
:10183C00FF711A4800F0C7FD0E23BB600023FB604C
:10184C0001233B6107F108031946134800F02AFCF9
:10185C004FF6F073BB600123FB6000233B61022356
:10186C007B6107F1080319460B4800F01BFC43F69B
:10187C00FF73BB600123FB6000233B6102237B6190
:10188C0007F108031946054800F00CFC00BF183797
:10189C00BD4680BD0010024000080140000C014014
:1018AC0080B582B000AF786000F056F8FFF716FAFA
:1018BC00FFF768FAFFF7BEFA00BF0837BD4680BDD8
:1018CC0080B400AF72B600BFFEE7000080B483B0F6
:1018DC0000AF78603960094B1B683A6892FBF3F2F1
:1018EC0007497B6841F82320064A7B68002142F8AF
:1018FC00231000BF0C37BD4680BC70476C00002025
:10190C00C80000205801002080B483B000AF78607C
:10191C000F4A7B6852F82330002B13DD0C4A7B688E
:10192C0052F823305A1E0A497B6841F82320084A92
:10193C007B6852F82330002B04DC064A7B680121BB
:10194C0042F8231000BF0C37BD4680BC704700BF67
:10195C00C80000205801002080B500AF0020FFF720
:10196C00D3FF0120FFF7D0FF0220FFF7CDFF0320AC
:10197C00FFF7CAFF0420FFF7C7FF0520FFF7C4FFDE
:10198C000620FFF7C1FF0720FFF7BEFF0820FFF777
:10199C00BBFF0920FFF7B8FF00BF80BD80B485B046
:1019AC0000AF154B9B69144A43F001039361124B32
:1019BC009B6903F00103BB60BB680F4BDB690E4AEC
:1019CC0043F08053D3610C4BDB6903F080537B6095
:1019DC007B680A4B5B68FB60FB6823F0E063FB6091
:1019EC00FB6843F08063FB60044AFB68536000BFF4
:1019FC001437BD4680BC7047001002400000014007
:101A0C0080B584B000AF78607B681B68B3F1804F01
:101A1C0013D10C4BDB690B4A43F00103D361094B27
:101A2C00DB6903F00103FB60FB68002200211C2032
:101A3C0000F001FB1C2000F01AFB00BF1037BD4664
:101A4C0080BD00BF0010024080B400AFFEE780B440
:101A5C0000AFFEE780B400AFFEE780B400AFFEE756
:101A6C0080B400AFFEE780B400AF00BFBD4680BCC1
:101A7C00704780B400AF00BFBD4680BC704780B4D7
:101A8C0000AF00BFBD4680BC704780B500AF00F012
:101A9C00BBF900BF80BD000080B500AF024801F06B
:101AAC003BF900BF80BD00BFF401002080B400AF43
:101ABC0000BFBD4680BC704780B500AF00224021FE
:101ACC00074800F080FC01228021054800F07BFCD7
:101ADC0001224FF48071024800F075FC00BF80BDFC
:101AEC000008014080B500AF01224021074800F0FA
:101AFC006AFC00228021054800F065FC01224FF4AD
:101B0C008071024800F05FFC00BF80BD00080140FE
:101B1C0080B500AF01224021074800F054FC01229F
:101B2C008021054800F04FFC00224FF480710248E0
:101B3C0000F049FC00BF80BD0008014080B500AF3B
:101B4C0000224FF40071084800F03DFC01224FF4D4
:101B5C008061054800F037FC01224FF40061024817
:101B6C0000F031FC00BF80BD0008014080B500AF23
:101B7C0001224FF40071084800F025FC00224FF4BC
:101B8C008061054800F01FFC01224FF400610248FF
:101B9C0000F019FC00BF80BD0008014080B500AF0B
:101BAC0001224FF40071084800F00DFC01224FF4A3
:101BBC008061054800F007FC00224FF400610248E8
:101BCC0000F001FC00BF80BD0008014080B500AFF3
:101BDC004021084800F00FFC01228021054800F04C
:101BEC00F2FB01224FF48071024800F0ECFB00BFC5
:101BFC0080BD00BF0008014080B500AF80210848BF
:101C0C0000F0F9FB01224021054800F0DCFB012229
:101C1C004FF48071024800F0D6FB00BF80BD00BFBE
:101C2C000008014080B500AF4FF48071074800F008
:101C3C00E2FB01224021054800F0C5FB0122802176
:101C4C00024800F0C0FB00BF80BD00BF000801408F
:101C5C0080B500AF4FF40071084800F0CCFB0122B6
:101C6C004FF48061054800F0AEFB01224FF4006197
:101C7C00024800F0A8FB00BF80BD00BF0008014077
:101C8C0080B500AF4FF48061084800F0B4FB01222E
:101C9C004FF40071054800F096FB01224FF40061EF
:101CAC00024800F090FB00BF80BD00BF000801405F
:101CBC0080B500AF4FF40061084800F09CFB012296
:101CCC004FF40071054800F07EFB01224FF4806157
:101CDC00024800F078FB00BF80BD00BF0008014047
:101CEC0080B500AF01224021104800F06CFB0122AE
:101CFC0080210E4800F067FB01224FF480710B48E5
:101D0C0000F061FB01224FF40071084800F05BFB0E
:101D1C0001224FF48061054800F055FB01224FF47D
:101D2C000061024800F04FFB00BF80BD000801407D
:101D3C00FFF7BCFE0B480C490C4A002302E0D458B8
:101D4C00C4500433C4188C42F9D3094A094C0023FB
:101D5C0001E013600432A242FBD301F01DFBFFF73C
:101D6C0089FC7047000000207C00002040340008F3
:101D7C007C00002040020020FEE7000080B500AF90
:101D8C00084B1B68074A43F010031360032000F054
:101D9C0047F90F2000F008F8FFF700FE0023184663
:101DAC0080BD00BF0020024080B582B000AF7860DB
:101DBC00124B1A68124B1B7819464FF47A73B3FB0B
:101DCC00F1F3B2FBF3F3184600F05FF90346002B76
:101DDC0001D001230EE07B680F2B0AD80022796812
:101DEC004FF0FF3000F027F9064A7B6813600023A0
:101DFC0000E0012318460837BD4680BD7000002066
:101E0C00780000207400002080B400AF054B1B78D4
:101E1C001A46054B1B681344034A136000BFBD46AA
:101E2C0080BC7047780000203C02002080B400AFDA
:101E3C00024B1B681846BD4680BC70473C02002014
:101E4C0080B584B000AF7860FFF7F0FFB8607B68B6
:101E5C00FB60FB68B3F1FF3F05D00A4B1B781A46B9
:101E6C00FB681344FB6000BFFFF7E0FF0246BB6852
:101E7C00D31AFA689A42F7D800BF00BF1037BD4694
:101E8C0080BD00BF7800002080B485B000AF7860C2
:101E9C007B6803F00703FB600C4BDB68BB60BA6824
:101EAC004FF6FF031340BB60FB681A02BB68134379
:101EBC0043F0BF6343F40033BB60044ABB68D36098
:101ECC0000BF1437BD4680BC704700BF00ED00E07A
:101EDC0080B400AF044BDB681B0A03F00703184601
:101EEC00BD4680BC704700BF00ED00E080B483B0FD
:101EFC0000AF0346FB7197F90730002B0BDBFB7926
:101F0C0003F01F02064997F907305B09012000FA1C
:101F1C0002F241F8232000BF0C37BD4680BC70474D
:101F2C0000E100E080B483B000AF03463960FB7180
:101F3C0097F90730002B0ADB3B68DAB20C4997F9AA
:101F4C0007301201D2B20B4483F800230AE03B683D
:101F5C00DAB20849FB7903F00F03043B1201D2B249
:101F6C000B441A7600BF0C37BD4680BC704700BFCF
:101F7C0000E100E000ED00E080B489B000AFF86053
:101F8C00B9607A60FB6803F00703FB61FB69C3F17E
:101F9C000703042B28BF0423BB61FB690433062B06
:101FAC0002D9FB69033B00E000237B614FF0FF3259
:101FBC00BB6902FA03F3DA43BB681A407B699A40A7
:101FCC004FF0FF317B6901FA03F3D9437B680B4077
:101FDC00134318462437BD4680BC704780B582B089
:101FEC0000AF78607B68013BB3F1807F01D30123A4
:101FFC000FE00A4A7B68013B53600F214FF0FF3022
:10200C00FFF790FF054B00229A60044B07221A60E1
:10201C00002318460837BD4680BD00BF10E000E025
:10202C0080B582B000AF78607868FFF72DFF00BFF5
:10203C000837BD4680BD80B586B000AF0346B96099
:10204C007A60FB7300237B61FFF742FF78617A684B
:10205C00B9687869FFF790FF024697F90F3011467F
:10206C001846FFF75FFF00BF1837BD4680BD80B52F
:10207C0082B000AF0346FB7197F907301846FFF7A3
:10208C0035FF00BF0837BD4680BD80B582B000AFBC
:10209C0078607868FFF7A2FF034618460837BD46FC
:1020AC0080BD000080B48BB000AF78603960002335
:1020BC007B6200233B6248E101227B6A02FA03F354
:1020CC00FB613B681B68FA691340BB61BA69FB6929
:1020DC009A4240F037813B685B68A34A93425ED0DA
:1020EC00A14A934275D8A14A934258D09F4A934231
:1020FC006FD89F4A934252D09D4A934269D89D4AC9
:10210C0093424CD09B4A934263D89B4A934246D00D
:10211C00994A93425DD8122B2AD8122B59D801A276
:10212C0052F823F0AB210008852100089721000804
:10213C00D9210008DF210008DF210008DF21000879
:10214C00DF210008DF210008DF210008DF21000863
:10215C00DF210008DF210008DF210008DF21000853
:10216C00DF210008DF2100088D210008A1210008D3
:10217C00824A934213D02CE03B68DB683B6229E037
:10218C003B68DB6804333B6224E03B68DB68083364
:10219C003B621FE03B68DB680C333B621AE03B6838
:1021AC009B68002B02D104233B6213E03B689B68C5
:1021BC00012B05D108233B627B68FA691A6109E09F
:1021CC0008233B627B68FA695A6103E000233B6297
:1021DC0000E000BFBB69FF2B01D87B6801E07B6886
:1021EC0004337B61BB69FF2B02D87B6A9B0002E046
:1021FC007B6A083B9B003B617B691A680F213B693A
:10220C0001FA03F3DB431A40396A3B6901FA03F321
:10221C001A437B691A603B685B6803F08053002BA0
:10222C0000F09080564B9B69554A43F00103936133
:10223C00534B9B6903F00103BB60BB68514A7B6A3B
:10224C009B08023352F82330FB607B6A03F00303D4
:10225C009B000F2202FA03F3DB43FA681340FB6086
:10226C007B68494A93420DD07B68484A934207D019
:10227C007B68474A934201D1022304E0032302E026
:10228C00012300E000237A6A02F0030292009340DB
:10229C00FA681343FB603B497B6A9B080233FA687C
:1022AC0041F823203B685B6803F48013002B06D0B5
:1022BC00384B9A683749BB6913438B6006E0354B42
:1022CC009A68BB69DB43334913408B603B685B689E
:1022DC0003F40013002B06D02E4BDA682D49BB6992
:1022EC001343CB6006E02B4BDA68BB69DB4329490F
:1022FC001340CB603B685B6803F40033002B06D0C3
:10230C00244B5A682349BB6913434B6006E0214BAD
:10231C005A68BB69DB431F4913404B603B685B68E1
:10232C0003F48033002B06D01A4B1A681949BB6989
:10233C0013430B6006E0174B1A68BB69DB43154966
:10234C0013400B607B6A01337B623B681A687B6AC3
:10235C0022FA03F3002B7FF4AFAE00BF00BF2C3783
:10236C00BD4680BC704700BF000032100000311029
:10237C0000002210000021100000121000001110AB
:10238C00001002400000014000080140000C014018
:10239C00001001400004014080B485B000AF7860AB
:1023AC000B467B807B689A687B881340002B02D09D
:1023BC000123FB7301E00023FB73FB7B18461437EE
:1023CC00BD4680BC704780B483B000AF78600B46CC
:1023DC007B8013467B707B78002B03D07A887B68DC
:1023EC001A6103E07B881A047B681A6100BF0C3702
:1023FC00BD4680BC704780B485B000AF78600B469A
:10240C007B807B68DB68FB607A88FB6813401A046E
:10241C00FB68D9437B880B401A437B681A6100BF69
:10242C001437BD4680BC704780B586B000AF78606D
:10243C007B68002B01D101236CE27B681B6803F0E5
:10244C000103002B00F08780924B5B6803F00C03B8
:10245C00042B0CD08F4B5B6803F00C03082B12D1B0
:10246C008C4B5B6803F48033B3F5803F0BD1894B05
:10247C001B6803F40033002B6CD07B685B68002B6B
:10248C0068D1012346E27B685B68B3F5803F06D1D7
:10249C00804B1B687F4A43F4803313602EE07B68CB
:1024AC005B68002B0CD17B4B1B687A4A23F480337E
:1024BC001360784B1B68774A23F4802313601DE06C
:1024CC007B685B68B3F5A02F0CD1724B1B68714A0B
:1024DC0043F4802313606F4B1B686E4A43F48033C4
:1024EC0013600BE06B4B1B686A4A23F48033136058
:1024FC00684B1B68674A23F4802313607B685B6816
:10250C00002B13D0FFF792FC386108E0FFF78EFC2C
:10251C0002463B69D31A642B01D90323FAE15D4BC4
:10252C001B6803F40033002BF0D014E0FFF77EFCA3
:10253C00386108E0FFF77AFC02463B69D31A642B3A
:10254C0001D90323E6E1534B1B6803F40033002B42
:10255C00F0D100E000BF7B681B6803F00203002B86
:10256C0063D04C4B5B6803F00C03002B0BD0494B36
:10257C005B6803F00C03082B1CD1464B5B6803F41F
:10258C008033002B16D1434B1B6803F00203002B46
:10259C0005D07B681B69012B01D00123BAE13D4BAF
:1025AC001B6823F0F8027B685B69DB003949134335
:1025BC000B603AE07B681B69002B20D0364B012264
:1025CC001A60FFF733FC386108E0FFF72FFC024676
:1025DC003B69D31A022B01D903239BE12D4B1B68BA
:1025EC0003F00203002BF0D02A4B1B6823F0F802F7
:1025FC007B685B69DB00274913430B6015E0264BB6
:10260C0000221A60FFF712FC386108E0FFF70EFC9D
:10261C0002463B69D31A022B01D903237AE11D4BE5
:10262C001B6803F00203002BF0D17B681B6803F0DE
:10263C000803002B3AD07B689B69002B19D0174BF1
:10264C0001221A60FFF7F2FB386108E0FFF7EEFB9E
:10265C0002463B69D31A022B01D903235AE10D4BD5
:10266C005B6A03F00203002BF0D0012000F09AFA11
:10267C001CE00A4B00221A60FFF7D8FB38610FE010
:10268C00FFF7D4FB02463B69D31A022B08D903236C
:10269C0040E100BF00100240000042428004424270
:1026AC009E4B5B6A03F00203002BE9D17B681B682D
:1026BC0003F00403002B00F0A6800023FB75974B5E
:1026CC00DB6903F08053002B0DD1944BDB69934AEB
:1026DC0043F08053D361914BDB6903F08053BB60B3
:1026EC00BB680123FB758E4B1B6803F48073002BB6
:1026FC0018D18B4B1B688A4A43F480731360FFF725
:10270C0095FB386108E0FFF791FB02463B69D31A51
:10271C00642B01D90323FDE0814B1B6803F4807308
:10272C00002BF0D07B68DB68012B06D17B4B1B6A3E
:10273C007A4A43F0010313622DE07B68DB68002BBF
:10274C000CD1764B1B6A754A23F001031362734B51
:10275C001B6A724A23F0040313621CE07B68DB687B
:10276C00052B0CD16D4B1B6A6C4A43F004031362AE
:10277C006A4B1B6A694A43F0010313620BE0674B17
:10278C001B6A664A23F001031362644B1B6A634A9B
:10279C0023F0040313627B68DB68002B15D0FFF772
:1027AC0045FB38610AE0FFF741FB02463B69D31A4F
:1027BC0041F28832934201D90323ABE0574B1B6A99
:1027CC0003F00203002BEED014E0FFF72FFB38616F
:1027DC000AE0FFF72BFB02463B69D31A41F2883221
:1027EC00934201D9032395E04C4B1B6A03F002037F
:1027FC00002BEED1FB7D012B05D1484BDB69474A01
:10280C0023F08053D3617B68DB69002B00F081805F
:10281C00424B5B6803F00C03082B61D07B68DB69CF
:10282C00022B46D13F4B00221A60FFF7FFFA3861AA
:10283C0008E0FFF7FBFA02463B69D31A022B01D9D9
:10284C00032367E0354B1B6803F00073002BF0D1BA
:10285C007B681B6AB3F5803F08D1304B5B6823F46F
:10286C0000327B689B682D4913434B602B4B5B6894
:10287C0023F474127B68196A7B685B6A0B432749E3
:10288C0013434B60274B01221A60FFF7CFFA3861D4
:10289C0008E0FFF7CBFA02463B69D31A022B01D9A9
:1028AC00032337E01D4B1B6803F00073002BF0D0A3
:1028BC002FE01C4B00221A60FFF7B8FA386108E0D1
:1028CC00FFF7B4FA02463B69D31A022B01D9032352
:1028DC0020E0124B1B6803F00073002BF0D118E0C2
:1028EC007B68DB69012B01D1012313E00B4B5B6887
:1028FC00FB60FB6803F480327B681B6A9A4206D14A
:10290C00FB6803F470127B685B6A9A4201D0012366
:10291C0000E0002318461837BD4680BD0010024069
:10292C00007000406000424280B584B000AF786017
:10293C0039607B68002B01D10123D0E06A4B1B6806
:10294C0003F007033A689A4210D9674B1B6823F0CF
:10295C00070265493B6813430B60634B1B6803F02C
:10296C0007033A689A4201D00123B8E07B681B68E0
:10297C0003F00203002B20D07B681B6803F00403D8
:10298C00002B05D0594B5B68584A43F4E063536005
:10299C007B681B6803F00803002B05D0534B5B6866
:1029AC00524A43F460535360504B5B6823F0F0027F
:1029BC007B689B684D4913434B607B681B6803F035
:1029CC000103002B40D07B685B68012B07D1474B80
:1029DC001B6803F40033002B15D101237FE07B68C7
:1029EC005B68022B07D1414B1B6803F00073002B73
:1029FC0009D1012373E03D4B1B6803F00203002B4C
:102A0C0001D101236BE0394B5B6823F003027B6837
:102A1C005B68364913434B60FFF708FAF8600AE02D
:102A2C00FFF704FA0246FB68D31A41F2883293424C
:102A3C0001D9032353E02D4B5B6803F00C027B6838
:102A4C005B689B009A42EBD1274B1B6803F0070392
:102A5C003A689A4210D2244B1B6823F00702224991
:102A6C003B6813430B60204B1B6803F007033A6869
:102A7C009A4201D0012332E07B681B6803F0040307
:102A8C00002B08D0194B5B6823F4E0627B68DB6891
:102A9C00164913434B607B681B6803F00803002B3B
:102AAC0009D0124B5B6823F460527B681B69DB0016
:102ABC000E4913434B6000F021F802460B4B5B6848
:102ACC001B0903F00F030A49CB5C22FA03F3094AF2
:102ADC001360094B1B681846FFF766F9002318466C
:102AEC001037BD4680BD00BF0020024000100240E0
:102AFC0014340008700000207400002080B487B0EB
:102B0C0000AF0023FB600023BB6000237B6100232C
:102B1C007B6000233B611E4B5B68FB60FB6803F032
:102B2C000C03042B02D0082B03D027E0194B3B617C
:102B3C0027E0FB689B0C03F00F03174AD35C7B6008
:102B4C00FB6803F48033002B10D0114B5B685B0CDB
:102B5C0003F00103114AD35CBB607B680D4A02FB96
:102B6C0003F2BB68B2FBF3F37B6104E07B680C4AB5
:102B7C0002FB03F37B617B693B6102E0054B3B612C
:102B8C0000BF3B6918461C37BD4680BC704700BF70
:102B9C000010024000127A0024340008343400087B
:102BAC0000093D0080B485B000AF78600A4B1B680B
:102BBC000A4AA2FB03235B0A7A6802FB03F3FB605D
:102BCC0000BFFB685A1EFA60002BF9D100BF00BF92
:102BDC001437BD4680BC704770000020D34D621086
:102BEC0080B582B000AF78607B68002B01D10123E7
:102BFC0041E07B6893F83D30DBB2002B06D17B685B
:102C0C00002283F83C207868FEF7FAFE7B680222EB
:102C1C0083F83D207B681A687B680433194610469C
:102C2C0000F056FA7B68012283F846207B6801226B
:102C3C0083F83E207B68012283F83F207B680122C9
:102C4C0083F840207B68012283F841207B680122B5
:102C5C0083F842207B68012283F843207B680122A1
:102C6C0083F844207B68012283F845207B6801228D
:102C7C0083F83D20002318460837BD4680BD000070
:102C8C0080B485B000AF78607B6893F83D30DBB2E0
:102C9C00012B01D0012335E07B68022283F83D2013
:102CAC007B681B68DA687B681B6842F00102DA609B
:102CBC007B681B68164A934209D07B681B68B3F18A
:102CCC00804F04D07B681B68124A934211D17B68F9
:102CDC001B689B6803F00703FB60FB68062B10D096
:102CEC007B681B681A687B681B6842F001021A60DB
:102CFC0007E07B681B681A687B681B6842F001025E
:102D0C001A60002318461437BD4680BC704700BFBC
:102D1C00002C01400004004080B584B000AF786006
:102D2C007B681B68DB68FB607B681B681B69BB608E
:102D3C00BB6803F00203002B20D0FB6803F00203F6
:102D4C00002B1BD07B681B686FF002021A617B683A
:102D5C0001221A777B681B689B6903F00303002B25
:102D6C0003D0786800F098F905E0786800F08BF9EA
:102D7C00786800F09AF97B6800221A77BB6803F038
:102D8C000403002B20D0FB6803F00403002B1BD0A2
:102D9C007B681B686FF004021A617B6802221A7749
:102DAC007B681B689B6903F44073002B03D0786825
:102DBC0000F072F905E0786800F065F9786800F0C9
:102DCC0074F97B6800221A77BB6803F00803002BA8
:102DDC0020D0FB6803F00803002B1BD07B681B681A
:102DEC006FF008021A617B6804221A777B681B68F3
:102DFC00DB6903F00303002B03D0786800F04CF977
:102E0C0005E0786800F03FF9786800F04EF97B68CF
:102E1C0000221A77BB6803F01003002B20D0FB684C
:102E2C0003F01003002B1BD07B681B686FF01002A3
:102E3C001A617B6808221A777B681B68DB6903F4CC
:102E4C004073002B03D0786800F026F905E0786811
:102E5C0000F019F9786800F028F97B6800221A77DD
:102E6C00BB6803F00103002B0CD0FB6803F00103DB
:102E7C00002B07D07B681B686FF001021A61786821
:102E8C00FEF70EFDBB6803F08003002B0CD0FB6833
:102E9C0003F08003002B07D07B681B686FF0800267
:102EAC001A61786800F06FFABB6803F04003002BDE
:102EBC000CD0FB6803F04003002B07D07B681B6829
:102ECC006FF040021A61786800F0F8F8BB6803F004
:102EDC002003002B0CD0FB6803F02003002B07D041
:102EEC007B681B686FF020021A61786800F042FA68
:102EFC0000BF1037BD4680BD80B584B000AF786090
:102F0C0039600023FB737B6893F83C30012B01D1B3
:102F1C000223B4E07B68012283F83C207B68022208
:102F2C0083F83D207B681B689B68BB60BB6823F003
:102F3C007703BB60BB6823F47F43BB607B681B6873
:102F4C00BA689A603B681B68B3F5005F3ED0B3F576
:102F5C00005F00F28780B3F5805F00F08680B3F5E8
:102F6C00805F7FD8702B1AD0702B7BD8602B50D001
:102F7C00602B77D8502B3CD0502B73D8402B58D08B
:102F8C00402B6FD8302B64D0302B6BD8202B60D0DB
:102F9C00202B67D8002B5CD0102B5AD062E07B68BA
:102FAC0018683B6899683B685A683B68DB6800F0B6
:102FBC006AF97B681B689B68BB60BB6843F077034E
:102FCC00BB607B681B68BA689A604FE07B681868C6
:102FDC003B6899683B685A683B68DB6800F053F9BA
:102FEC007B681B689A687B681B6842F480429A6015
:102FFC003CE07B6818683B6859683B68DB681A469C
:10300C0000F0CAF87B681B685021184600F021F9C3
:10301C002CE07B6818683B6859683B68DB681A468B
:10302C0000F0E8F87B681B686021184600F011F985
:10303C001CE07B6818683B6859683B68DB681A467B
:10304C0000F0AAF87B681B684021184600F001F9D3
:10305C000CE07B681A683B681B681946104600F048
:10306C00F8F803E00123FB7300E000BF7B6801224A
:10307C0083F83D207B68002283F83C20FB7B1846BC
:10308C001037BD4680BD80B483B000AF786000BF00
:10309C000C37BD4680BC704780B483B000AF7860FD
:1030AC0000BF0C37BD4680BC704780B483B000AF06
:1030BC00786000BF0C37BD4680BC704780B483B0CD
:1030CC0000AF786000BF0C37BD4680BC7047000075
:1030DC0080B485B000AF786039607B681B68FB609A
:1030EC007B682B4A934207D07B68B3F1804F03D0A7
:1030FC007B68284A934208D1FB6823F07003FB607D
:10310C003B685B68FA681343FB607B68204A934218
:10311C0007D07B68B3F1804F03D07B681D4A934284
:10312C0008D1FB6823F44073FB603B68DB68FA68EA
:10313C001343FB60FB6823F080023B685B6913431D
:10314C00FB607B68FA681A603B689A687B68DA6295
:10315C003B681A687B689A627B680D4A934203D17C
:10316C003B681A697B681A637B6801225A617B6829
:10317C001B6903F00103002B05D07B681B6923F04E
:10318C0001027B681A6100BF1437BD4680BC7047D2
:10319C00002C01400004004080B487B000AFF86000
:1031AC00B9607A60FB681B6A7B61FB681B6A23F061
:1031BC000102FB681A62FB689B693B613B6923F067
:1031CC00F0033B617B681B013A6913433B617B69EC
:1031DC0023F00A037B617A69BB6813437B61FB684C
:1031EC003A699A61FB687A691A6200BF1C37BD465E
:1031FC0080BC704780B487B000AFF860B9607A606B
:10320C00FB681B6A7B61FB681B6A23F01002FB687E
:10321C001A62FB689B693B613B6923F470433B6119
:10322C007B681B033A6913433B617B6923F0A00362
:10323C007B61BB681B017A6913437B61FB683A694C
:10324C009A61FB687A691A6200BF1C37BD4680BC64
:10325C00704780B485B000AF786039607B689B683C
:10326C00FB60FB6823F07003FB603A68FB68134358
:10327C0043F00703FB607B68FA689A6000BF143761
:10328C00BD4680BC704780B487B000AFF860B960B1
:10329C007A603B60FB689B687B617B6923F47F43AE
:1032AC007B613B681A027B681A43BB6813437A69DB
:1032BC0013437B61FB687A699A6000BF1C37BD467B
:1032CC0080BC704780B485B000AF786039607B6893
:1032DC0093F83C30012B01D1022341E07B680122A1
:1032EC0083F83C207B68022283F83D207B681B68B6
:1032FC005B68FB607B681B689B68BB60FB6823F0AA
:10330C007003FB603B681B68FA681343FB607B68C7
:10331C001B68FA685A607B681B68144A934209D090
:10332C007B681B68B3F1804F04D07B681B68104A24
:10333C0093420CD1BB6823F08003BB603B685B6895
:10334C00BA681343BB607B681B68BA689A607B6879
:10335C00012283F83D207B68002283F83C20002367
:10336C0018461437BD4680BC704700BF002C014086
:10337C000004004080B483B000AF786000BF0C370D
:10338C00BD4680BC704780B483B000AF786000BF8E
:10339C000C37BD4680BC704770B500260C4D0D4CEB
:1033AC00641BA410A64209D100F022F800260A4D95
:1033BC000A4C641BA410A64205D170BD55F8043B01
:1033CC0098470136EEE755F8043B98470136F2E78B
:1033DC003834000838340008383400083C3400080D
:1033EC0003460244934200D1704703F8011BF9E7EE
:1033FC00F8B500BFF8BC08BC9E467047F8B500BFD6
:08340C00F8BC08BC9E467047A5
:103414000000000000000000010203040607080980
:1034240002030405060708090A0B0C0D0E0F101001
:043434000102000091
:043438003101000856
:04343C000D01000876
:103440001400000014000000010000000100000052
:103450000100000001000000010000000100000068
:103460000100000001000000010000000100000058
:103470000100000001000000C80000000B00000077
:103480000100000001000000050000000200000033
:10349000030000000500000002000000030000001F
:1034A0000500000002000000030000000A00000008
:0C34B00000127A00100000000100000073
:0400000508001D3D95
:00000001FF
