:020000040800F2
:1000000000280020052600081D23000823230008DF
:10001000292300082F2300083523000800000000D2
:100020000000000000000000000000003B2300086A
:100030004723000800000000532300085F23000846
:100040004D2600084D2600084D2600084D260008C4
:100050004D2600084D2600084D2600084D260008B4
:100060004D2600084D2600084D2600084D260008A4
:100070004D2600084D2600084D2600084D26000894
:100080004D2600084D2600084D2600084D26000884
:100090004D2600084D2600084D2600084D26000874
:1000A0004D2600084D2600084D2600084D26000864
:1000B0006D2300084D260008000000004D260008B2
:1000C0004D26000800000000000000004D2600083A
:1000D000000000004D2600084D260008000000002A
:1000E0004D2600084D2600084D260008000000009F
:1000F0000000000000000000000000000000000000
:0C01000000000000000000005FF808F1A3
:10010C0010B5054C237833B9044B13B10448AFF345
:10011C0000800123237010BD7C0000200000000033
:10012C007C3C000808B5034B1BB103490348AFF3F3
:10013C00008008BD00000000800000207C3C00080E
:10014C0080B500AF984B1B68013B062B00F21D815C
:10015C0001A252F823F000BF81010008AF01000892
:10016C003D020008C9020008550300086B03000893
:10017C00810300088C4B02221A608C4B1B688C4A42
:10018C0013608A4B1B684FF47A7202FB03F3194617
:10019C00012002F001F84FF47A71042001F0FCFF09
:1001AC0000E102F0EDF8824B1B68824A82FB0312DD
:1001BC009210DB17D31A804A13607D4B19687D4B64
:1001CC0083FB01239A10CB17D21A13469B001344BE
:1001DC005B00CA1A784B5A60784B1B69012B10D103
:1001EC00734B1B68013B724A1360714B1B68002BED
:1001FC0002DA6F4B00221A604FF47A71042001F07E
:10020C00CBFF6E4B5B68012B40F0C180664B032229
:10021C001A606B4B1B684FF47A7202FB03F319469E
:10022C00012001F0B9FF664B1B68664A1360AEE013
:10023C0002F0D2F8634B1B685E4A82FB03129210E9
:10024C00DB17D31A5C4A13605E4B1968594B83FB5E
:10025C0001239A10CB17D21A13469B0013445B0050
:10026C00CA1A554B5A60554B1B69012B10D1554B73
:10027C001B68013B534A1360524B1B68002B02DA7C
:10028C00504B00221A604FF47A71042001F084FF65
:10029C004A4B5B68012B7CD1434B04221A604A4BBE
:1002AC001B684A4A1360484B1B684FF47A7202FB76
:1002BC0003F31946012001F06FFF6AE002F076F8B3
:1002CC00424B1B683B4A82FB03129210DB17D31A7A
:1002DC00394A13603D4B1968364B83FB01239A1046
:1002EC00CB17D21A13469B0013445B00CA1A324B2D
:1002FC005A60324B1B69012B10D1344B1B68013BEC
:10030C00324A1360314B1B68002B02DA2F4B002250
:10031C001A604FF47A71042001F03EFF274B5B68A2
:10032C00012B38D1204B02221A60204B1B684FF452
:10033C007A7202FB03F31946012001F02DFF1B4BCF
:10034C001B681B4A136026E01C4B1B6A012B24D133
:10035C0002F0A0F8FA21082001F01EFF1DE0174B57
:10036C001B6A012B1BD102F0ABF8FA21082001F01B
:10037C0013FF14E0114B1B6A012B12D102F0B6F8DB
:10038C00FA21082001F008FF0BE000BF0AE000BFD3
:10039C0008E000BF06E000BF04E000BF02E000BFC1
:1003AC0000E000BF00BF80BD3800002048000020E6
:1003BC005400002067666666B00000205C010020D7
:1003CC00500000205C0000204C0000205800002051
:1003DC0080B500AF994B1B68013B062B00F21E81C8
:1003EC0001A252F823F000BF110400083F040008DA
:1003FC00CD04000859050008E7050008FD050008B4
:10040C00130600088D4B03221A608D4B1B688D4A16
:10041C0013608B4B1B684FF47A7202FB03F3194683
:10042C00022001F0B9FE4FF47A71072001F0B4FEFE
:10043C0001E101F0E7FF844B1B68844A82FB031245
:10044C009210DB17D31A824A13607F4B19687F4BCB
:10045C0083FB01239A10CB17D21A13469B0013442B
:10046C005B00CA1A7A4B5A607A4BDB69012B10D1AC
:10047C00754B1B68013B744A1360734B1B68002B54
:10048C0002DA714B00221A604FF47A71072001F0E6
:10049C0083FE704B9B68012B40F0C280674B01229E
:1004AC001A60674B1B684FF47A7202FB03F3194610
:1004BC00022001F071FE624B1B68624A1360AFE0D0
:1004CC0001F0D0FF5F4B1B68604A82FB0312921055
:1004DC00DB17D31A5E4A13605A4B19685B4B83FBCC
:1004EC0001239A10CB17D21A13469B0013445B00BE
:1004FC00CA1A574B5A60574BDB69012B10D1514B21
:10050C001B68013B4F4A13604E4B1B68002B02DAF1
:10051C004C4B00221A604FF47A71072001F03CFE1C
:10052C004C4B9B68012B7DD1444B04221A604A4BE7
:10053C001B684FF47A7202FB03F31946022001F098
:10054C002BFE454B1B68454A13606BE001F072FFB4
:10055C00424B1B683D4A82FB03129210DB17D31AE5
:10056C003B4A13603D4B1968384B83FB01239A10AF
:10057C00CB17D21A13469B0013445B00CA1A344B98
:10058C005A60344BDB69012B11D1344B1B68013B96
:10059C00324A1360314B1B68002B03D12E4B1B6866
:1005AC002E4A13604FF47A71072001F0F5FD294BA8
:1005BC009B68012B38D1214B02221A60284B1B68F7
:1005CC004FF47A7202FB03F31946022001F0E4FDAA
:1005DC00234B1B681C4A136026E01E4B5B6A012BE5
:1005EC0024D101F099FFFA21092001F0D5FD1DE07D
:1005FC00184B5B6A012B1BD101F0A6FFFA210920D5
:10060C0001F0CAFD14E0134B5B6A012B12D101F00F
:10061C00B3FFFA21092001F0BFFD0BE000BF0AE097
:10062C0000BF08E000BF06E000BF04E000BF02E02E
:10063C0000BF00E000BF00BF80BD00BF3C00002039
:10064C00500000206800002060000020676666668D
:10065C00B80000205C0100204C0000206400002049
:10066C004800002080B500AFFFF76AFDFFF7B0FE31
:10067C0000BF80BD80B500AF624B1B68013B162BE1
:10068C0000F2B48001A252F823F000BFF506000876
:10069C00F9070008F9070008F9070008F90700082E
:1006AC00F9070008F9070008F9070008F90700081E
:1006BC00F9070008F9070008F9070008F90700080E
:1006CC00F9070008F9070008F9070008F9070008FE
:1006DC00F9070008F90700080507000839070008A2
:1006EC0079070008B9070008464B14221A600A2142
:1006FC00052001F051FD82E0434B5B69012B77D162
:10070C00424B1B68184600F0C5FF404B1B68013379
:10071C003E4A13603D4B1B68022B02D13B4B00221F
:10072C001A60FA21052001F037FD61E0384B0022F8
:10073C001A60374B02225A60334B5B69012B59D13B
:10074C00324B1B68184600F0A5FF304B1B68013379
:10075C002E4A13602D4B1B68022B02D12B4B00220F
:10076C001A60FA21052001F017FD43E0284B002206
:10077C001A60274B03225A60234B5B69012B3BD138
:10078C00224B1B68184600F085FF204B1B68013379
:10079C001E4A13601D4B1B68022B02D11B4B0022FF
:1007AC001A60FA21052001F0F7FC25E0184B002215
:1007BC001A60174B04225A60134B5B69012B1DD135
:1007CC00124B1B68184600F065FF104B1B68013379
:1007DC000E4A13600D4B1B68022B02D10B4B0022EF
:1007EC001A60FA21052001F0D7FC07E000BF06E0F3
:1007FC0000BF04E000BF02E000BF00E000BF00BF8C
:10080C0080BD00BF400000205C010020C000002023
:10081C00B000002080B500AF7E4B1B68013B162B4F
:10082C0000F2F58001A252F823F000BF95080008F1
:10083C001B0A00081B0A00081B0A00081B0A0008F8
:10084C001B0A00081B0A00081B0A00081B0A0008E8
:10085C001B0A00081B0A00081B0A00081B0A0008D8
:10086C001B0A00081B0A00081B0A00081B0A0008C8
:10087C001B0A00081B0A0008A5080008DB08000872
:10088C0041090008A7090008624B14221A600A21CA
:10089C00062001F081FCBAE05F4B9B69012B40F014
:1008AC00AF805E4B1B68184600F02CFF5B4B1B683F
:1008BC0001335A4A1360594B1B68022B02D1574B18
:1008CC0000221A60FA21062001F066FC98E0544BD5
:1008DC001B68544A82FB03129210DB17D31A524A3C
:1008EC0013604F4B19684F4B83FB01239A10CB17A6
:1008FC00D21A13469B0013445B00CA1A4A4B5A6027
:10090C00454B9B69012B7DD1444B1B68184600F06D
:10091C00F9FE424B1B680133404A13603F4B1B6886
:10092C00022B02D13D4B00221A60FA21062001F065
:10093C0033FC67E03D4B1B683A4A82FB0312921072
:10094C00DB17D31A384A1360384B1968354B83FBC5
:10095C0001239A10CB17D21A13469B0013445B0049
:10096C00CA1A314B5A602C4B9B69012B4CD12B4B27
:10097C001B68184600F0C6FE284B1B680133274A3B
:10098C001360264B1B68022B02D1244B00221A60E9
:10099C00FA21062001F000FC36E0254B1B68214AA9
:1009AC0082FB03129210DB17D31A1F4A1360204BE1
:1009BC0019681C4B83FB01239A10CB17D21A1346D0
:1009CC009B0013445B00CA1A174B5A60124B9B696D
:1009DC00012B1BD1114B1B68184600F093FE0F4BDB
:1009EC001B6801330D4A13600C4B1B68022B02D1A0
:1009FC000A4B00221A60FA21062001F0CDFB05E01B
:100A0C0000BF04E000BF02E000BF00E000BF00BF79
:100A1C0080BD00BF440000205C010020C400002009
:100A2C00F001002067666666B8000020F401002023
:100A3C00EC01002080B500AF8E4B1B68013B0D2BE9
:100A4C0000F26C8101A252F823F000BF910A000859
:100A5C00290D0008290D0008290D0008290D000892
:100A6C00290D0008290D0008290D0008290D000882
:100A7C00290D0008990A0008310B0008AD0B00087D
:100A8C00290C00087B4B0B221A6050E100F05AF93C
:100A9C000346012B1CD1774B0C221A60764B152286
:100AAC001A60764B15221A60754B05221A60754B2D
:100ABC0005221A6001F078FDFA21082001F06CFB88
:100ACC00FA21092001F068FB6F4B1B686F4A136019
:100ADC0000F038F90346012B40F0228100F068F950
:100AEC000346012B40F01C81624B0C221A60624BB6
:100AFC0015221A60614B15221A60614B05221A608F
:100B0C00604B05221A6001F04FFDFA21082001F01C
:100B1C0043FBFA21092001F03FFB5B4B1B685B4A4E
:100B2C001360FDE000F00EF90346012B1CD1514B74
:100B3C000D221A60504B16221A60504B16221A6066
:100B4C004F4B06221A604F4B06221A6001F02CFD07
:100B5C00FA21082001F020FBFA21092001F01CFBEE
:100B6C004B4B1B684B4A136000F0FEF80346012BFD
:100B7C000BD1464B1B680133444A1360434B1B6833
:100B8C00632B02DD414B01221A6000F0FFF8034693
:100B9C00012B40F0C7803D4B1B683B4A1360C1E002
:100BAC0000F0D0F80346012B1CD1324B0E221A60F8
:100BBC00314B17221A60314B17221A60304B072227
:100BCC001A60304B07221A6001F0EEFCFA21082063
:100BDC0001F0E2FAFA21092001F0DEFA2E4B1B6833
:100BEC002E4A136000F0C0F80346012B0BD1294BA1
:100BFC001B680133274A1360264B1B68632B02DDED
:100C0C00244B01221A6000F0C1F80346012B40F07E
:100C1C008B80204B1B681E4A136085E000F092F815
:100C2C000346012B5FD1144B14221A60134B142270
:100C3C001A60104B0B221A60114B01221A60114BD7
:100C4C0001221A600C4B14221A600C4B14221A60ED
:100C5C00114B1A680E4B1B681A440B4B1B689A42BB
:100C6C001EDD0D4B1A680A4B1B681344064A1360B1
:100C7C0026E000BF3400002040000020440000208B
:100C8C00380000203C00002048000020F00100202B
:100C9C004C000020F401002050000020EC0100204A
:100CAC00244B1A68244B1B681A44244B1B689A4229
:100CBC0006DA224B1A68204B1B68D31A1D4A1360A4
:100CCC001E4B1B68632B05DC1B4B1A68194B1B68EE
:100CDC009A4208DD194B05221A60174B02221A6042
:100CEC00144B03221A6000F03FF80346012B0BD182
:100CFC00134B1B680133124A1360114B1B68632B97
:100D0C0002DD0F4B01221A6000F040F80346012B64
:100D1C000CD10B4B1B68074A136007E000BF06E0C1
:100D2C0000BF04E000BF02E000BF00E000BF00BF56
:100D3C0080BD00BF500000204C0000204800002067
:100D4C00EC01002080B400AF064B1B68012B04D1D2
:100D5C00044B00221A60012300E000231846BD4614
:100D6C0080BC70479800002080B400AF064B1B6815
:100D7C00012B04D1044B00221A60012300E0002354
:100D8C001846BD4680BC70479C00002080B400AF64
:100D9C00064B1B68012B04D1044B00221A60012363
:100DAC0000E000231846BD4680BC7047A000002020
:100DBC0080B400AF064B1B68012B04D1044B0022FE
:100DCC001A60012300E000231846BD4680BC704722
:100DDC00A400002080B500AF224B1B68224A136090
:100DEC00224B1B681F4A13600221214801F014FF9B
:100DFC0003461A461D4B1A601B4B1A68194B1B688D
:100E0C009A422DD1174B1A68184B1B689A4227D15E
:100E1C00184B1A68154B1B689A4212D0134B1B685F
:100E2C00144A1360114B1B68002B06D1124B012284
:100E3C001A60124BC8221A6012E00F4B00221A6083
:100E4C000EE00E4B1B68013B0C4A13600B4B1B68EE
:100E5C00002B05DC0A4B01221A60064B01221A609A
:100E6C0000BF80BD0C0000200000002018000020F6
:100E7C0000080140240000209800002030000020D1
:100E8C00A400002080B500AF224B5B68224A53605F
:100E9C00224B5B681F4A53600421214801F0BCFEC1
:100EAC0003461A461D4B5A601B4B5A68194B5B681C
:100EBC009A422DD1174B5A68184B5B689A4227D12E
:100ECC00184B5A68154B5B689A4212D0134B5B68EF
:100EDC00144A5360114B5B68002B06D1124B012254
:100EEC001A60124BC8221A6012E00F4B00221A60D3
:100EFC000EE00E4B1B68013B0C4A13600B4B1B683E
:100F0C00002B05DC0A4B01221A60064B01225A60A9
:100F1C0000BF80BD0C000020000000201800002045
:100F2C0000080140240000209C000020300000201C
:100F3C00A800002080B500AF224B9B68224A93602A
:100F4C00224B9B681F4A93600821214801F064FEE4
:100F5C0003461A461D4B9A601B4B9A68194B9B68AB
:100F6C009A422DD1174B9A68184B9B689A4227D1FD
:100F7C00184B9A68154B9B689A4212D0134B9B687E
:100F8C00144A9360114B9B68002B06D1124B012223
:100F9C001A60124BC8221A6012E00F4B00221A6022
:100FAC000EE00E4B1B68013B0C4A13600B4B1B688D
:100FBC00002B05DC0A4B01221A60064B01229A60B9
:100FCC0000BF80BD0C000020000000201800002095
:100FDC000008014024000020A00000203000002068
:100FEC00AC00002080B582B000AF78607B68092B24
:100FFC0000F2808101A252F823F000BF31100008EA
:10100C0079100008C11000080911000851110008DE
:10101C0099110008E111000829120008711200084A
:10102C00B912000800220121B44801F00CFE002284
:10103C000221B24801F007FE00220421AF4801F062
:10104C0002FE00220821AD4801F0FDFD0022102116
:10105C00AA4801F0F8FD00222021A84801F0F3FD78
:10106C0001224021A54801F0EEFD43E101220121BE
:10107C00A24801F0E8FD00220221A04801F0E3FDA6
:10108C00002204219D4801F0DEFD012208219B482D
:10109C0001F0D9FD01221021984801F0D4FD012264
:1010AC002021964801F0CFFD01224021934801F008
:1010BC00CAFD1FE100220121904801F0C4FD00226D
:1010CC0002218E4801F0BFFD012204218B4801F062
:1010DC00BAFD00220821894801F0B5FD002210213B
:1010EC00864801F0B0FD01222021844801F0ABFDBF
:1010FC0000224021814801F0A6FDFBE000220121E5
:10110C007E4801F0A0FD002202217C4801F09BFDED
:10111C0000220421794801F096FD0022082177482D
:10112C0001F091FD01221021744801F08CFD012287
:10113C002021724801F087FD002240216F4801F008
:10114C0082FDD7E0012201216C4801F07CFD0022D8
:10115C0002216A4801F077FD00220421674801F062
:10116C0072FD01220821654801F06DFD012210215C
:10117C00624801F068FD00222021604801F063FD07
:10118C00002240215D4801F05EFDB3E00022012108
:10119C005A4801F058FD01220221584801F053FD34
:1011AC0000220421554801F04EFD0022082153482D
:1011BC0001F049FD01221021504801F044FD0022AC
:1011CC0020214E4801F03FFD002240214B4801F008
:1011DC003AFD8FE000220121484801F034FD012244
:1011EC000221464801F02FFD00220421434801F062
:1011FC002AFD00220821414801F025FD0022102182
:10120C003E4801F020FD002220213C4801F01BFD4E
:10121C0000224021394801F016FD6BE0002201212B
:10122C00364801F010FD00220221344801F00BFD7C
:10123C0000220421314801F006FD012208212F482B
:10124C0001F001FD012210212C4801F0FCFC0122CF
:10125C0020212A4801F0F7FC01224021274801F007
:10126C00F2FC47E000220121244801F0ECFC0022B2
:10127C000221224801F0E7FC002204211F4801F062
:10128C00E2FC002208211D4801F0DDFC00221021A7
:10129C001A4801F0D8FC00222021184801F0D3FC98
:1012AC0000224021154801F0CEFC23E00022012150
:1012BC00124801F0C8FC00220221104801F0C3FCC6
:1012CC00002204210D4801F0BEFC002208210B482D
:1012DC0001F0B9FC01221021084801F0B4FC0022F5
:1012EC002021064801F0AFFC00224021034801F008
:1012FC00AAFC00BF00BF0837BD4680BD000C0140F2
:10130C0080B582B000AF78607B68092B00F2BC819D
:10131C0001A252F823F000BF4D130008A1130008DE
:10132C00F5130008491400089D140008F114000876
:10133C004515000899150008ED1500084116000820
:10134C0000228021D24801F07EFC00224FF48071F3
:10135C00CF4801F078FC00224FF40071CC4801F02A
:10136C0072FC00224FF48061C94801F06CFC002231
:10137C004FF40061C64801F066FC00224FF4805126
:10138C00C34801F060FC01224FF40051C04801F049
:10139C005AFC79E101228021BD4801F054FC002265
:1013AC004FF48071BA4801F04EFC00224FF40071EA
:1013BC00B74801F048FC01224FF48061B44801F0B9
:1013CC0042FC01224FF40061B14801F03CFC0122C7
:1013DC004FF48051AE4801F036FC01224FF400511D
:1013EC00AB4801F030FC4FE100228021A84801F00D
:1013FC002AFC00224FF48071A54801F024FC012244
:10140C004FF40071A24801F01EFC00224FF48061E1
:10141C009F4801F018FC00224FF400619C4801F039
:10142C0012FC01224FF48051994801F00CFC00226F
:10143C004FF40051964801F006FC25E10022802172
:10144C00934801F000FC00224FF48071904801F0A9
:10145C00FAFB00224FF400718D4801F0F4FB0022DE
:10146C004FF480618A4801F0EEFB01224FF40061D9
:10147C00874801F0E8FB01224FF48051844801F0C9
:10148C00E2FB00224FF40051814801F0DCFBFBE051
:10149C00012280217E4801F0D6FB00224FF480719E
:1014AC007B4801F0D0FB00224FF40071784801F02A
:1014BC00CAFB01224FF48061754801F0C4FB012284
:1014CC004FF40061724801F0BEFB00224FF48051D2
:1014DC006F4801F0B8FB00224FF400516C4801F04A
:1014EC00B2FBD1E000228021694801F0ACFB012263
:1014FC004FF48071664801F0A6FB00224FF4007196
:10150C00634801F0A0FB00224FF48061604801F0B9
:10151C009AFB01224FF400615D4801F094FB00221C
:10152C004FF480515A4801F08EFB00224FF40051C9
:10153C00574801F088FBA7E000228021544801F0B5
:10154C0082FB01224FF48071514801F07CFB002298
:10155C004FF400714E4801F076FB00224FF480618D
:10156C004B4801F070FB00224FF40061484801F039
:10157C006AFB00224FF48051454801F064FB0022C5
:10158C004FF40051424801F05EFB7DE000228021C7
:10159C003F4801F058FB00224FF480713C4801F0A9
:1015AC0052FB00224FF40071394801F04CFB012230
:1015BC004FF48061364801F046FB01224FF4006184
:1015CC00334801F040FB01224FF48051304801F0C8
:1015DC003AFB01224FF400512D4801F034FB53E04B
:1015EC00002280212A4801F02EFB00224FF480714A
:1015FC00274801F028FB00224FF40071244801F029
:10160C0022FB00224FF48061214801F01CFB0022D8
:10161C004FF400611E4801F016FB00224FF480517C
:10162C001B4801F010FB00224FF40051184801F048
:10163C000AFB29E000228021154801F004FB00225E
:10164C004FF48071124801F0FEFA00224FF4007141
:10165C000F4801F0F8FA00224FF480610C4801F0B9
:10166C00F2FA01224FF40061094801F0ECFA002271
:10167C004FF48051064801F0E6FA00224FF4005175
:10168C00034801F0E0FA00BF00BF0837BD4680BD3B
:10169C00000C014080B582B000AF78607B68002BF5
:1016AC0003D07B68012B12D023E000224FF4805131
:1016BC00124801F0C8FA01224FF400510F4801F012
:1016CC00C2FA0F4B1B681846FFF78CFC11E0012285
:1016DC004FF48051094801F0B6FA00224FF4005142
:1016EC00064801F0B0FA064B5B681846FFF77AFC27
:1016FC0000BF00BF0837BD4680BD00BF00080140D9
:10170C00B000002080B582B000AF78607B68002B01
:10171C0003D07B68012B12D023E000224FF48041D0
:10172C00124801F090FA01224FF400410F4801F0E9
:10173C008AFA0F4B1B681846FFF7E2FD11E00122F5
:10174C004FF48041094801F07EFA00224FF4004129
:10175C00064801F078FA064B5B681846FFF7D0FD97
:10176C0000BF00BF0837BD4680BD00BF0008014068
:10177C00B800002080B500AFFFF72CFBFFF782FB11
:10178C00FFF7D8FB00BF80BD80B500AFFFF752F963
:10179C00FEF768FF00BF80BD80B500AFFEF76AFFA3
:1017AC00FFF738F800BF80BD80B500AF202102489C
:1017BC0001F061FA00BF80BD0008014080B500AFA8
:1017CC001021024801F057FA00BF80BD000801400B
:1017DC0080B500AF4FF48041024801F04CFA00BFD5
:1017EC0080BD00BF000C014080B500AF4FF400413C
:1017FC00024801F040FA00BF80BD00BF000C014060
:10180C0080B500AF0121024801F035FA00BF80BD60
:10181C000008014080B500AF00F014FF00F090F814
:10182C0000F016F900F0C8F8344801F069FE344BAA
:10183C0001221A60334B01221A60334B01221A60C9
:10184C00324B01221A60324B01221A6001222021F4
:10185C00304801F0F8F9012210212E4801F0F3F97B
:10186C0001224FF480412C4801F0EDF901224FF494
:10187C000041294801F0E7F901220121254801F036
:10188C00E2F900F06FF90A220021244800F0D0F9A7
:10189C000A220021224800F0CBF914220A21214807
:1018AC0000F0C6F914220A211F4800F0C1F94FF4C8
:1018BC00FA724FF47A711D4800F0BAF94FF47A724B
:1018CC004FF47A711A4800F0B3F940F2DC524FF43D
:1018DC007A71184800F0ACF94FF4FA624FF47A714F
:1018EC00154800F0A5F940F6C4124FF47A7113486C
:1018FC0000F09EF900F032FBFCE700BFF80100207D
:10190C0034000020380000203C0000204000002063
:10191C004400002000080140000C01403122000866
:10192C008117000895170008A5170008B5170008BF
:10193C00DD170008C9170008F51700080D18000876
:10194C0080B590B000AF07F118032822002118468B
:10195C0002F086F93B1D00221A605A609A60DA6028
:10196C001A610223BB610123BB621023FB620023BB
:10197C007B6307F11803184601F096F90346002B18
:10198C0001D000F0D1F80F237B600023BB60002353
:10199C00FB6000233B6100237B613B1D002118464B
:1019AC0001F002FC0346002B01D000F0BDF800BF93
:1019BC004037BD4680BD000080B586B000AF07F152
:1019CC00080300221A605A609A60DA603B460022D3
:1019DC001A605A601D4B4FF080421A601B4B41F647
:1019EC003F725A60194B00229A60184B0922DA6038
:1019FC00164B00221A61154B00229A61134801F014
:101A0C002FFD0346002B01D000F08EF84FF48053CD
:101A1C00BB6007F1080319460C4801F0ADFE034604
:101A2C00002B01D000F080F800233B6000237B608A
:101A3C003B461946054802F085F80346002B01D0B9
:101A4C0000F072F800BF1837BD4680BDF8010020C9
:101A5C0080B586B000AF07F1080300221A605A6007
:101A6C009A60DA60284B9B69274A43F00403936120
:101A7C00254B9B6903F004037B607B68224B9B69BD
:101A8C00214A43F0080393611F4B9B6903F0080341
:101A9C003B603B6800224FF6F1711C4801F0D3F813
:101AAC0000224FF6FF711A4801F0CDF84FF6F17392
:101ABC00BB600123FB6000233B6102237B6107F1C8
:101ACC0008031946114800F02DFF0E23BB600023BC
:101ADC00FB6001233B6107F1080319460B4800F03A
:101AEC0021FF4FF6FF73BB600123FB6000233B61BA
:101AFC0002237B6107F108031946054800F012FF29
:101B0C0000BF1837BD4680BD0010024000080140E0
:101B1C00000C014080B582B000AF786000F068F82E
:101B2C0000BF0837BD4680BD80B400AF72B600BFA1
:101B3C00FEE7000080B400AF094B1B680133084A74
:101B4C001360074B1B68002B04D1054B1B6801333A
:101B5C00034A1360024B1B681846BD4680BC704795
:101B6C00C800002080B483B000AF00237B6033E05A
:101B7C001E497A6813469B0013449B000B440022B9
:101B8C001A601A497A6813469B0013449B000B4455
:101B9C00043300221A6015497A6813469B001344DB
:101BAC009B000B44083300221A6010497A681346D4
:101BBC009B0013449B000B440C3300221A700B49FE
:101BCC007A6813469B0013449B000B44103300228D
:101BDC001A607B6801337B607B68232BC8D900BFFC
:101BEC0000BF0C37BD4680BC704700BF40020020D0
:101BFC0080B400AF0D4B1B68002B13D00B4B1B7B21
:101C0C00002B0FD1094B5B68002B04D0074B5B6892
:101C1C00013B064A5360054B5B68002B02D1034B1A
:101C2C0001221A7300BFBD4680BC704740020020E1
:101C3C0090B58BB000AFF860B9607A60002387F87C
:101C4C00273000233B620023BB61BB68C14AA2FB67
:101C5C000323DB087B617B68BE4AA2FB0323DB0802
:101C6C003B61002387F8273069E197F82720BA49B0
:101C7C0013469B0013449B000B441B68002B0CD099
:101C8C0097F82720B44913469B0013449B000B4440
:101C9C0004331B683A6A13443B623A6A7B699A4282
:101CAC0040F2E08097F82720AB4913469B00134481
:101CBC009B000B4404331A683B6AD31A7A691344A9
:101CCC00BB6197F82720396A7B69C91AA248134669
:101CDC009B0013449B000344043319602323FB77BC
:101CEC0060E0FB7F591EFA7F9B480B469B000B4420
:101CFC009B0003441968984813469B0013449B00AF
:101D0C0003441960FB7F591EFA7F93480B469B00D6
:101D1C000B449B000344043319688F4813469B0003
:101D2C0013449B00034404331960FB7F591EFA7F54
:101D3C0089480B469B000B449B00034408331968ED
:101D4C00854813469B0013449B00034408331960D9
:101D5C00FB7F591EFA7F80480B469B000B449B006F
:101D6C000344103319687C4813469B0013449B00B2
:101D7C00034410331960FB7F591EFA7F76480B46DB
:101D8C009B000B449B0003440C3318787249134698
:101D9C009B0013449B000B440C3302461A70FB7FD0
:101DAC00013BFB77FA7F97F827309A4299D897F83E
:101DBC002720694913469B0013449B000B44FA6887
:101DCC001A6097F82720644913469B0013449B0024
:101DDC000B440433BA691A6097F827205E491346FE
:101DEC009B0013449B000B4408333A691A6097F824
:101DFC002740FFF79FFE0246574923469B0023448A
:101E0C009B000B4410331A6097F827205249134655
:101E1C009B0013449B000B4404331B68002B0BD119
:101E2C0097F827204C4913469B0013449B000B4406
:101E3C000C3301221A700AE097F827204649134602
:101E4C009B0013449B000B440C3300221A7097F830
:101E5C002720414913469B0013449B000B4410332D
:101E6C001B6872E097F827203B4913469B001344EC
:101E7C009B000B441B68002B5CD197F8272036493C
:101E8C0013469B0013449B000B44FA681A6097F8A6
:101E9C00272079693B6AC91A2F4813469B001344C3
:101EAC009B0003440433196097F827202A491346F2
:101EBC009B0013449B000B4408333A691A6097F853
:101ECC002740FFF737FE0246234923469B00234455
:101EDC009B000B4410331A6097F827201E491346B9
:101EEC009B0013449B000B4404331B68002B0BD149
:101EFC0097F82720184913469B0013449B000B446A
:101F0C000C3301221A700AE097F827201249134665
:101F1C009B0013449B000B440C3300221A7097F85F
:101F2C0027200D4913469B0013449B000B44103390
:101F3C001B680AE097F82730013387F8273097F8A9
:101F4C002730232B7FF691AE002318462C37BD4645
:101F5C0090BD00BFCDCCCCCC40020020B0B586B03B
:101F6C0000AF154B1B7B002B22D0134B1B689847E3
:101F7C00114B00221A73104B3C1D1D460FCD0FC484
:101F8C002B6823607B69184600F018F8FB68002B5F
:101F9C000ED07868FA6813469B0013445B00194610
:101FAC00FA6813469B0013445B001A46FFF740FE89
:101FBC0000BF1837BD46B0BD4002002080B485B0CC
:101FCC0000AF78607B68002B01D10023DDE000239B
:101FDC00FB73D5E0FA7B6F4913469B0013449B00BF
:101FEC000B4410331B687A689A4240F0C680FB7B26
:101FFC00222B28D8FB7B5A1C664913469B001344A2
:10200C009B000B441B68002B1DD0FB7B5A1C6149A9
:10201C0013469B0013449B000B4404331968FA7B52
:10202C005C4813469B0013449B00034404331B6819
:10203C00FA7B01321944574813469B0013449B000A
:10204C00034404331960FB7BBB7360E0BB7B591CFE
:10205C00BA7B50480B469B000B449B000344043353
:10206C0019684C4813469B0013449B0003440433EB
:10207C001960BB7B591CBA7B46480B469B000B4432
:10208C009B00034408331968424813469B001344D1
:10209C009B00034408331960BB7B591CBA7B3D4839
:1020AC000B469B000B449B0003440C3318783949B6
:1020BC0013469B0013449B000B440C3302461A70CE
:1020CC00BB7B591CBA7B33480B469B000B449B00D3
:1020DC00034419682F4813469B0013449B00034488
:1020EC001960BB7B591CBA7B2A480B469B000B44DE
:1020FC009B00034410331968264813469B00134475
:10210C009B00034410331960BB7B0133BB73BB7B57
:10211C00222B9BD9BA7B1F4913469B0013449B006F
:10212C000B4400221A60BA7B1A4913469B001344D5
:10213C009B000B44043300221A60BA7B15491346EA
:10214C009B0013449B000B44083300221A60BA7B9B
:10215C00104913469B0013449B000B440C33002284
:10216C001A70BA7B0B4913469B0013449B000B441B
:10217C00103300221A607B6807E0FB7B0133FB7392
:10218C00FB7B232B7FF626AF002318461437BD4666
:10219C0080BC70474002002080B483B000AF7860F0
:1021AC003960094B1B683A6892FBF3F207497B686C
:1021BC0041F82320064A7B68002142F8231000BF17
:1021CC000C37BD4680BC70476C000020CC00002052
:1021DC005C01002080B483B000AF78600F4A7B684C
:1021EC0052F82330002B13DD0C4A7B6852F8233055
:1021FC005A1E0A497B6841F82320084A7B6852F82A
:10220C002330002B04DC064A7B68012142F82310A2
:10221C0000BF0C37BD4680BC704700BFCC0000200F
:10222C005C01002080B500AF0020FFF7D3FF012038
:10223C00FFF7D0FF0220FFF7CDFF0420FFF7CAFF06
:10224C000720FFF7C7FF0520FFF7C4FF0620FFF7A5
:10225C00C1FF0820FFF7BEFF0920FFF7BBFF00BF3F
:10226C0080BD000080B485B000AF154B9B69144A4B
:10227C0043F001039361124B9B6903F00103BB60B4
:10228C00BB680F4BDB690E4A43F08053D3610C4B98
:10229C00DB6903F080537B607B680A4B5B68FB60F7
:1022AC00FB6823F0E063FB60FB6843F08063FB603A
:1022BC00044AFB68536000BF1437BD4680BC7047AE
:1022CC00001002400000014080B584B000AF78607F
:1022DC007B681B68B3F1804F13D10C4BDB690B4A45
:1022EC0043F00103D361094BDB6903F00103FB608D
:1022FC00FB68002200211C2000F0DDFA1C2000F0FD
:10230C00F6FA00BF1037BD4680BD00BF001002407A
:10231C0080B400AFFEE780B400AFFEE780B400AF3E
:10232C00FEE780B400AFFEE780B400AFFEE780B4F8
:10233C0000AF00BFBD4680BC704780B400AF00BF8B
:10234C00BD4680BC704780B400AF00BFBD4680BCAA
:10235C00704780B500AF00F0BBF900BF80BD000036
:10236C0080B500AF024801F017F900BF80BD00BF77
:10237C00F801002080B400AF00BFBD4680BC7047A0
:10238C0080B500AF00224021074800F05CFC012220
:10239C008021054800F057FC01224FF4807102485F
:1023AC0000F051FC00BF80BD0008014080B500AFBB
:1023BC0001224021074800F046FC002280210548FC
:1023CC0000F041FC01224FF48071024800F03BFC0C
:1023DC0000BF80BD0008014080B500AF0122402144
:1023EC00074800F030FC01228021054800F02BFC4E
:1023FC0000224FF48071024800F025FC00BF80BD24
:10240C000008014080B500AF00224FF4007108486D
:10241C0000F019FC01224FF48061054800F013FC18
:10242C0001224FF40061024800F00DFC00BF80BD9A
:10243C000008014080B500AF01224FF4007108483C
:10244C0000F001FC00224FF48061054800F0FBFB1A
:10245C0001224FF40061024800F0F5FB00BF80BD83
:10246C000008014080B500AF01224FF4007108480C
:10247C0000F0E9FB01224FF48061054800F0E3FB1A
:10248C0000224FF40061024800F0DDFB00BF80BD6C
:10249C000008014080B500AF4021084800F0EBFB7C
:1024AC0001228021054800F0CEFB01224FF48071FF
:1024BC00024800F0C8FB00BF80BD00BF000801400F
:1024CC0080B500AF8021084800F0D5FB01224021E7
:1024DC00054800F0B8FB01224FF48071024800F06F
:1024EC00B2FB00BF80BD00BF0008014080B500AF4B
:1024FC004FF48071074800F0BEFB012240210548D3
:10250C0000F0A1FB01228021024800F09CFB00BFDF
:10251C0080BD00BF0008014080B500AF4FF40071D2
:10252C00084800F0A8FB01224FF48061054800F038
:10253C008AFB01224FF40061024800F084FB00BFCB
:10254C0080BD00BF0008014080B500AF4FF4806132
:10255C00084800F090FB01224FF40071054800F090
:10256C0072FB01224FF40061024800F06CFB00BFCB
:10257C0080BD00BF0008014080B500AF4FF4006182
:10258C00084800F078FB01224FF40071054800F078
:10259C005AFB01224FF48061024800F054FB00BF4B
:1025AC0080BD00BF0008014080B500AF0122402172
:1025BC00104800F048FB012280210E4800F043FB3C
:1025CC0001224FF480710B4800F03DFB01224FF4C7
:1025DC000071084800F037FB01224FF48061054878
:1025EC0000F031FB01224FF40061024800F02BFB9C
:1025FC0000BF80BD00080140FFF7BCFE0B480C4932
:10260C000C4A002302E0D458C4500433C4188C4242
:10261C00F9D3094A094C002301E013600432A242A9
:10262C00FBD301F0F9FAFFF7F5F870470000002032
:10263C007C000020C03C00087C0000201405002019
:10264C00FEE7000080B500AF084B1B68074A43F05B
:10265C0010031360032000F023F90F2000F008F89A
:10266C00FFF700FE0023184680BD00BF002002408B
:10267C0080B582B000AF7860124B1A68124B1B7891
:10268C0019464FF47A73B3FBF1F3B2FBF3F318462C
:10269C0000F03BF90346002B01D001230EE07B68D0
:1026AC000F2B0AD8002279684FF0FF3000F003F9A5
:1026BC00064A7B681360002300E0012318460837A4
:1026CC00BD4680BD70000020780000207400002002
:1026DC0080B400AF054B1B781A46054B1B6813449E
:1026EC00034A136000BFBD4680BC704778000020D1
:1026FC001005002080B400AF024B1B681846BD4685
:10270C0080BC70471005002080B485B000AF7860A5
:10271C007B6803F00703FB600C4BDB68BB60BA689B
:10272C004FF6FF031340BB60FB681A02BB681343F0
:10273C0043F0BF6343F40033BB60044ABB68D3600F
:10274C0000BF1437BD4680BC704700BF00ED00E0F1
:10275C0080B400AF044BDB681B0A03F00703184678
:10276C00BD4680BC704700BF00ED00E080B483B074
:10277C0000AF0346FB7197F90730002B0BDBFB799D
:10278C0003F01F02064997F907305B09012000FA94
:10279C0002F241F8232000BF0C37BD4680BC7047C5
:1027AC0000E100E080B483B000AF03463960FB71F8
:1027BC0097F90730002B0ADB3B68DAB20C4997F922
:1027CC0007301201D2B20B4483F800230AE03B68B5
:1027DC00DAB20849FB7903F00F03043B1201D2B2C1
:1027EC000B441A7600BF0C37BD4680BC704700BF47
:1027FC0000E100E000ED00E080B489B000AFF860CB
:10280C00B9607A60FB6803F00703FB61FB69C3F1F5
:10281C000703042B28BF0423BB61FB690433062B7D
:10282C0002D9FB69033B00E000237B614FF0FF32D0
:10283C00BB6902FA03F3DA43BB681A407B699A401E
:10284C004FF0FF317B6901FA03F3D9437B680B40EE
:10285C00134318462437BD4680BC704780B582B000
:10286C0000AF78607B68013BB3F1807F01D301231B
:10287C000FE00A4A7B68013B53600F214FF0FF3099
:10288C00FFF790FF054B00229A60044B07221A6059
:10289C00002318460837BD4680BD00BF10E000E09D
:1028AC0080B582B000AF78607868FFF72DFF00BF6D
:1028BC000837BD4680BD80B586B000AF0346B96011
:1028CC007A60FB7300237B61FFF742FF78617A68C3
:1028DC00B9687869FFF790FF024697F90F301146F7
:1028EC001846FFF75FFF00BF1837BD4680BD80B5A7
:1028FC0082B000AF0346FB7197F907301846FFF71B
:10290C0035FF00BF0837BD4680BD80B582B000AF33
:10291C0078607868FFF7A2FF034618460837BD4673
:10292C0080BD000080B48BB000AF786039600023AC
:10293C007B6200233B6248E101227B6A02FA03F3CB
:10294C00FB613B681B68FA691340BB61BA69FB69A0
:10295C009A4240F037813B685B68A34A93425ED051
:10296C00A14A934275D8A14A934258D09F4A9342A8
:10297C006FD89F4A934252D09D4A934269D89D4A40
:10298C0093424CD09B4A934263D89B4A934246D085
:10299C00994A93425DD8122B2AD8122B59D801A2EE
:1029AC0052F823F02B2A0008052A0008172A0008E1
:1029BC00592A00085F2A00085F2A00085F2A0008CD
:1029CC005F2A00085F2A00085F2A00085F2A0008B7
:1029DC005F2A00085F2A00085F2A00085F2A0008A7
:1029EC005F2A00085F2A00080D2A0008212A000827
:1029FC00824A934213D02CE03B68DB683B6229E0AF
:102A0C003B68DB6804333B6224E03B68DB680833DB
:102A1C003B621FE03B68DB680C333B621AE03B68AF
:102A2C009B68002B02D104233B6213E03B689B683C
:102A3C00012B05D108233B627B68FA691A6109E016
:102A4C0008233B627B68FA695A6103E000233B620E
:102A5C0000E000BFBB69FF2B01D87B6801E07B68FD
:102A6C0004337B61BB69FF2B02D87B6A9B0002E0BD
:102A7C007B6A083B9B003B617B691A680F213B69B1
:102A8C0001FA03F3DB431A40396A3B6901FA03F399
:102A9C001A437B691A603B685B6803F08053002B18
:102AAC0000F09080564B9B69554A43F001039361AB
:102ABC00534B9B6903F00103BB60BB68514A7B6AB3
:102ACC009B08023352F82330FB607B6A03F003034C
:102ADC009B000F2202FA03F3DB43FA681340FB60FE
:102AEC007B68494A93420DD07B68484A934207D091
:102AFC007B68474A934201D1022304E0032302E09E
:102B0C00012300E000237A6A02F003029200934052
:102B1C00FA681343FB603B497B6A9B080233FA68F3
:102B2C0041F823203B685B6803F48013002B06D02C
:102B3C00384B9A683749BB6913438B6006E0354BB9
:102B4C009A68BB69DB43334913408B603B685B6815
:102B5C0003F40013002B06D02E4BDA682D49BB6909
:102B6C001343CB6006E02B4BDA68BB69DB43294986
:102B7C001340CB603B685B6803F40033002B06D03A
:102B8C00244B5A682349BB6913434B6006E0214B25
:102B9C005A68BB69DB431F4913404B603B685B6859
:102BAC0003F48033002B06D01A4B1A681949BB6901
:102BBC0013430B6006E0174B1A68BB69DB431549DE
:102BCC0013400B607B6A01337B623B681A687B6A3B
:102BDC0022FA03F3002B7FF4AFAE00BF00BF2C37FB
:102BEC00BD4680BC704700BF0000321000003110A1
:102BFC000000221000002110000012100000111023
:102C0C00001002400000014000080140000C01408F
:102C1C00001001400004014080B485B000AF786022
:102C2C000B467B807B689A687B881340002B02D014
:102C3C000123FB7301E00023FB73FB7B1846143765
:102C4C00BD4680BC704780B483B000AF78600B4643
:102C5C007B8013467B707B78002B03D07A887B6853
:102C6C001A6103E07B881A047B681A6100BF0C3779
:102C7C00BD4680BC704780B485B000AF78600B4611
:102C8C007B807B68DB68FB607A88FB6813401A04E6
:102C9C00FB68D9437B880B401A437B681A6100BFE1
:102CAC001437BD4680BC704780B586B000AF7860E5
:102CBC007B68002B01D101236CE27B681B6803F05D
:102CCC000103002B00F08780924B5B6803F00C0330
:102CDC00042B0CD08F4B5B6803F00C03082B12D128
:102CEC008C4B5B6803F48033B3F5803F0BD1894B7D
:102CFC001B6803F40033002B6CD07B685B68002BE3
:102D0C0068D1012346E27B685B68B3F5803F06D14E
:102D1C00804B1B687F4A43F4803313602EE07B6842
:102D2C005B68002B0CD17B4B1B687A4A23F48033F5
:102D3C001360784B1B68774A23F4802313601DE0E3
:102D4C007B685B68B3F5A02F0CD1724B1B68714A82
:102D5C0043F4802313606F4B1B686E4A43F480333B
:102D6C0013600BE06B4B1B686A4A23F480331360CF
:102D7C00684B1B68674A23F4802313607B685B688D
:102D8C00002B13D0FFF7B6FC386108E0FFF7B2FC5C
:102D9C0002463B69D31A642B01D90323FAE15D4B3C
:102DAC001B6803F40033002BF0D014E0FFF7A2FCF7
:102DBC00386108E0FFF79EFC02463B69D31A642B8E
:102DCC0001D90323E6E1534B1B6803F40033002BBA
:102DDC00F0D100E000BF7B681B6803F00203002BFE
:102DEC0063D04C4B5B6803F00C03002B0BD0494BAE
:102DFC005B6803F00C03082B1CD1464B5B6803F497
:102E0C008033002B16D1434B1B6803F00203002BBD
:102E1C0005D07B681B69012B01D00123BAE13D4B26
:102E2C001B6823F0F8027B685B69DB0039491343AC
:102E3C000B603AE07B681B69002B20D0364B0122DB
:102E4C001A60FFF757FC386108E0FFF753FC0246A5
:102E5C003B69D31A022B01D903239BE12D4B1B6831
:102E6C0003F00203002BF0D02A4B1B6823F0F8026E
:102E7C007B685B69DB00274913430B6015E0264B2D
:102E8C0000221A60FFF736FC386108E0FFF732FCCD
:102E9C0002463B69D31A022B01D903237AE11D4B5D
:102EAC001B6803F00203002BF0D17B681B6803F056
:102EBC000803002B3AD07B689B69002B19D0174B69
:102ECC0001221A60FFF716FC386108E0FFF712FCCC
:102EDC0002463B69D31A022B01D903235AE10D4B4D
:102EEC005B6A03F00203002BF0D0012000F09AFA89
:102EFC001CE00A4B00221A60FFF7FCFB38610FE064
:102F0C00FFF7F8FB02463B69D31A022B08D90323BF
:102F1C0040E100BF001002400000424280044242E7
:102F2C009E4B5B6A03F00203002BE9D17B681B68A4
:102F3C0003F00403002B00F0A6800023FB75974BD5
:102F4C00DB6903F08053002B0DD1944BDB69934A62
:102F5C0043F08053D361914BDB6903F08053BB602A
:102F6C00BB680123FB758E4B1B6803F48073002B2D
:102F7C0018D18B4B1B688A4A43F480731360FFF79C
:102F8C00B9FB386108E0FFF7B5FB02463B69D31A81
:102F9C00642B01D90323FDE0814B1B6803F4807380
:102FAC00002BF0D07B68DB68012B06D17B4B1B6AB6
:102FBC007A4A43F0010313622DE07B68DB68002B37
:102FCC000CD1764B1B6A754A23F001031362734BC9
:102FDC001B6A724A23F0040313621CE07B68DB68F3
:102FEC00052B0CD16D4B1B6A6C4A43F00403136226
:102FFC006A4B1B6A694A43F0010313620BE0674B8F
:10300C001B6A664A23F001031362644B1B6A634A12
:10301C0023F0040313627B68DB68002B15D0FFF7E9
:10302C0069FB38610AE0FFF765FB02463B69D31A7E
:10303C0041F28832934201D90323ABE0574B1B6A10
:10304C0003F00203002BEED014E0FFF753FB3861C2
:10305C000AE0FFF74FFB02463B69D31A41F2883274
:10306C00934201D9032395E04C4B1B6A03F00203F6
:10307C00002BEED1FB7D012B05D1484BDB69474A78
:10308C0023F08053D3617B68DB69002B00F08180D7
:10309C00424B5B6803F00C03082B61D07B68DB6947
:1030AC00022B46D13F4B00221A60FFF723FB3861FD
:1030BC0008E0FFF71FFB02463B69D31A022B01D92C
:1030CC00032367E0354B1B6803F00073002BF0D132
:1030DC007B681B6AB3F5803F08D1304B5B6823F4E7
:1030EC0000327B689B682D4913434B602B4B5B680C
:1030FC0023F474127B68196A7B685B6A0B4327495B
:10310C0013434B60274B01221A60FFF7F3FA386127
:10311C0008E0FFF7EFFA02463B69D31A022B01D9FC
:10312C00032337E01D4B1B6803F00073002BF0D01A
:10313C002FE01C4B00221A60FFF7DCFA386108E024
:10314C00FFF7D8FA02463B69D31A022B01D90323A5
:10315C0020E0124B1B6803F00073002BF0D118E039
:10316C007B68DB69012B01D1012313E00B4B5B68FE
:10317C00FB60FB6803F480327B681B6A9A4206D1C1
:10318C00FB6803F470127B685B6A9A4201D00123DE
:10319C0000E0002318461837BD4680BD00100240E1
:1031AC00007000406000424280B584B000AF78608F
:1031BC0039607B68002B01D10123D0E06A4B1B687E
:1031CC0003F007033A689A4210D9674B1B6823F047
:1031DC00070265493B6813430B60634B1B6803F0A4
:1031EC0007033A689A4201D00123B8E07B681B6858
:1031FC0003F00203002B20D07B681B6803F0040350
:10320C00002B05D0594B5B68584A43F4E06353607C
:10321C007B681B6803F00803002B05D0534B5B68DD
:10322C00524A43F460535360504B5B6823F0F002F6
:10323C007B689B684D4913434B607B681B6803F0AC
:10324C000103002B40D07B685B68012B07D1474BF7
:10325C001B6803F40033002B15D101237FE07B683E
:10326C005B68022B07D1414B1B6803F00073002BEA
:10327C0009D1012373E03D4B1B6803F00203002BC3
:10328C0001D101236BE0394B5B6823F003027B68AF
:10329C005B68364913434B60FFF72CFAF8600AE081
:1032AC00FFF728FA0246FB68D31A41F288329342A0
:1032BC0001D9032353E02D4B5B6803F00C027B68B0
:1032CC005B689B009A42EBD1274B1B6803F007030A
:1032DC003A689A4210D2244B1B6823F00702224909
:1032EC003B6813430B60204B1B6803F007033A68E1
:1032FC009A4201D0012332E07B681B6803F004037F
:10330C00002B08D0194B5B6823F4E0627B68DB6808
:10331C00164913434B607B681B6803F00803002BB2
:10332C0009D0124B5B6823F460527B681B69DB008D
:10333C000E4913434B6000F021F802460B4B5B68BF
:10334C001B0903F00F030A49CB5C22FA03F3094A69
:10335C001360094B1B681846FFF78AF900231846BF
:10336C001037BD4680BD00BF002002400010024057
:10337C00943C0008700000207400002080B487B0DA
:10338C0000AF0023FB600023BB6000237B610023A4
:10339C007B6000233B611E4B5B68FB60FB6803F0AA
:1033AC000C03042B02D0082B03D027E0194B3B61F4
:1033BC0027E0FB689B0C03F00F03174AD35C7B6080
:1033CC00FB6803F48033002B10D0114B5B685B0C53
:1033DC0003F00103114AD35CBB607B680D4A02FB0E
:1033EC0003F2BB68B2FBF3F37B6104E07B680C4A2D
:1033FC0002FB03F37B617B693B6102E0054B3B61A4
:10340C0000BF3B6918461C37BD4680BC704700BFE7
:10341C000010024000127A00A43C0008B43C0008E2
:10342C0000093D0080B485B000AF78600A4B1B6882
:10343C000A4AA2FB03235B0A7A6802FB03F3FB60D4
:10344C0000BFFB685A1EFA60002BF9D100BF00BF09
:10345C001437BD4680BC704770000020D34D6210FD
:10346C0080B582B000AF78607B68002B01D101235E
:10347C0041E07B6893F83D30DBB2002B06D17B68D2
:10348C00002283F83C207868FEF71EFF7B6802223E
:10349C0083F83D207B681A687B6804331946104614
:1034AC0000F056FA7B68012283F846207B680122E3
:1034BC0083F83E207B68012283F83F207B68012241
:1034CC0083F840207B68012283F841207B6801222D
:1034DC0083F842207B68012283F843207B68012219
:1034EC0083F844207B68012283F845207B68012205
:1034FC0083F83D20002318460837BD4680BD0000E8
:10350C0080B485B000AF78607B6893F83D30DBB257
:10351C00012B01D0012335E07B68022283F83D208A
:10352C007B681B68DA687B681B6842F00102DA6012
:10353C007B681B68164A934209D07B681B68B3F101
:10354C00804F04D07B681B68124A934211D17B6870
:10355C001B689B6803F00703FB60FB68062B10D00D
:10356C007B681B681A687B681B6842F001021A6052
:10357C0007E07B681B681A687B681B6842F00102D5
:10358C001A60002318461437BD4680BC704700BF34
:10359C00002C01400004004080B584B000AF78607E
:1035AC007B681B68DB68FB607B681B681B69BB6006
:1035BC00BB6803F00203002B20D0FB6803F002036E
:1035CC00002B1BD07B681B686FF002021A617B68B2
:1035DC0001221A777B681B689B6903F00303002B9D
:1035EC0003D0786800F098F905E0786800F08BF962
:1035FC00786800F09AF97B6800221A77BB6803F0B0
:10360C000403002B20D0FB6803F00403002B1BD019
:10361C007B681B686FF004021A617B6802221A77C0
:10362C007B681B689B6903F44073002B03D078689C
:10363C0000F072F905E0786800F065F9786800F040
:10364C0074F97B6800221A77BB6803F00803002B1F
:10365C0020D0FB6803F00803002B1BD07B681B6891
:10366C006FF008021A617B6804221A777B681B686A
:10367C00DB6903F00303002B03D0786800F04CF9EE
:10368C0005E0786800F03FF9786800F04EF97B6847
:10369C0000221A77BB6803F01003002B20D0FB68C4
:1036AC0003F01003002B1BD07B681B686FF010021B
:1036BC001A617B6808221A777B681B68DB6903F444
:1036CC004073002B03D0786800F026F905E0786889
:1036DC0000F019F9786800F028F97B6800221A7755
:1036EC00BB6803F00103002B0CD0FB6803F0010353
:1036FC00002B07D07B681B686FF001021A61786899
:10370C00FEF708FABB6803F08003002B0CD0FB68B3
:10371C0003F08003002B07D07B681B686FF08002DE
:10372C001A61786800F06FFABB6803F04003002B55
:10373C000CD0FB6803F04003002B07D07B681B68A0
:10374C006FF040021A61786800F0F8F8BB6803F07B
:10375C002003002B0CD0FB6803F02003002B07D0B8
:10376C007B681B686FF020021A61786800F042FADF
:10377C0000BF1037BD4680BD80B584B000AF786007
:10378C0039600023FB737B6893F83C30012B01D12B
:10379C000223B4E07B68012283F83C207B68022280
:1037AC0083F83D207B681B689B68BB60BB6823F07B
:1037BC007703BB60BB6823F47F43BB607B681B68EB
:1037CC00BA689A603B681B68B3F5005F3ED0B3F5EE
:1037DC00005F00F28780B3F5805F00F08680B3F560
:1037EC00805F7FD8702B1AD0702B7BD8602B50D079
:1037FC00602B77D8502B3CD0502B73D8402B58D003
:10380C00402B6FD8302B64D0302B6BD8202B60D052
:10381C00202B67D8002B5CD0102B5AD062E07B6831
:10382C0018683B6899683B685A683B68DB6800F02D
:10383C006AF97B681B689B68BB60BB6843F07703C5
:10384C00BB607B681B68BA689A604FE07B6818683D
:10385C003B6899683B685A683B68DB6800F053F931
:10386C007B681B689A687B681B6842F480429A608C
:10387C003CE07B6818683B6859683B68DB681A4613
:10388C0000F0CAF87B681B685021184600F021F93B
:10389C002CE07B6818683B6859683B68DB681A4603
:1038AC0000F0E8F87B681B686021184600F011F9FD
:1038BC001CE07B6818683B6859683B68DB681A46F3
:1038CC0000F0AAF87B681B684021184600F001F94B
:1038DC000CE07B681A683B681B681946104600F0C0
:1038EC00F8F803E00123FB7300E000BF7B680122C2
:1038FC0083F83D207B68002283F83C20FB7B184634
:10390C001037BD4680BD80B483B000AF786000BF77
:10391C000C37BD4680BC704780B483B000AF786074
:10392C0000BF0C37BD4680BC704780B483B000AF7D
:10393C00786000BF0C37BD4680BC704780B483B044
:10394C0000AF786000BF0C37BD4680BC70470000EC
:10395C0080B485B000AF786039607B681B68FB6011
:10396C007B682B4A934207D07B68B3F1804F03D01E
:10397C007B68284A934208D1FB6823F07003FB60F4
:10398C003B685B68FA681343FB607B68204A934290
:10399C0007D07B68B3F1804F03D07B681D4A9342FC
:1039AC0008D1FB6823F44073FB603B68DB68FA6862
:1039BC001343FB60FB6823F080023B685B69134395
:1039CC00FB607B68FA681A603B689A687B68DA620D
:1039DC003B681A687B689A627B680D4A934203D1F4
:1039EC003B681A697B681A637B6801225A617B68A1
:1039FC001B6903F00103002B05D07B681B6923F0C6
:103A0C0001027B681A6100BF1437BD4680BC704749
:103A1C00002C01400004004080B487B000AFF86077
:103A2C00B9607A60FB681B6A7B61FB681B6A23F0D8
:103A3C000102FB681A62FB689B693B613B6923F0DE
:103A4C00F0033B617B681B013A6913433B617B6963
:103A5C0023F00A037B617A69BB6813437B61FB68C3
:103A6C003A699A61FB687A691A6200BF1C37BD46D5
:103A7C0080BC704780B487B000AFF860B9607A60E2
:103A8C00FB681B6A7B61FB681B6A23F01002FB68F6
:103A9C001A62FB689B693B613B6923F470433B6191
:103AAC007B681B033A6913433B617B6923F0A003DA
:103ABC007B61BB681B017A6913437B61FB683A69C4
:103ACC009A61FB687A691A6200BF1C37BD4680BCDC
:103ADC00704780B485B000AF786039607B689B68B4
:103AEC00FB60FB6823F07003FB603A68FB681343D0
:103AFC0043F00703FB607B68FA689A6000BF1437D9
:103B0C00BD4680BC704780B487B000AFF860B96028
:103B1C007A603B60FB689B687B617B6923F47F4325
:103B2C007B613B681A027B681A43BB6813437A6952
:103B3C0013437B61FB687A699A6000BF1C37BD46F2
:103B4C0080BC704780B485B000AF786039607B680A
:103B5C0093F83C30012B01D1022341E07B68012218
:103B6C0083F83C207B68022283F83D207B681B682D
:103B7C005B68FB607B681B689B68BB60FB6823F021
:103B8C007003FB603B681B68FA681343FB607B683F
:103B9C001B68FA685A607B681B68144A934209D008
:103BAC007B681B68B3F1804F04D07B681B68104A9C
:103BBC0093420CD1BB6823F08003BB603B685B680D
:103BCC00BA681343BB607B681B68BA689A607B68F1
:103BDC00012283F83D207B68002283F83C200023DF
:103BEC0018461437BD4680BC704700BF002C0140FE
:103BFC000004004080B483B000AF786000BF0C3785
:103C0C00BD4680BC704780B483B000AF786000BF05
:103C1C000C37BD4680BC704770B500260C4D0D4C62
:103C2C00641BA410A64209D100F022F800260A4D0C
:103C3C000A4C641BA410A64205D170BD55F8043B78
:103C4C0098470136EEE755F8043B98470136F2E702
:103C5C00B83C0008B83C0008B83C0008BC3C000864
:103C6C0003460244934200D1704703F8011BF9E765
:103C7C00F8B500BFF8BC08BC9E467047F8B500BF4D
:083C8C00F8BC08BC9E4670471D
:103C940000000000000000000102030406070809F8
:103CA40002030405060708090A0B0C0D0E0F101079
:043CB4000102000009
:043CB80031010008CE
:043CBC000D010008EE
:103CC00001000000010000000100000001000000F0
:103CD00001000000010000000100000001000000E0
:103CE00001000000010000000100000001000000D0
:103CF000C8000000010000000100000001000000F9
:103D000001000000010000000500000002000000AA
:103D10000300000005000000020000000300000096
:103D20000500000002000000030000000A0000007F
:0C3D300000127A001000000001000000EA
:0400000508002605C4
:00000001FF
